{
  "_format": "hh-sol-artifact-1",
  "contractName": "BufficornBattle",
  "sourceName": "contracts/BufficornBattle.sol",
  "abi": [
    {
      "inputs": [
        {
          "internalType": "string[]",
          "name": "characterNames",
          "type": "string[]"
        },
        {
          "internalType": "string[]",
          "name": "characterImageURIs",
          "type": "string[]"
        },
        {
          "internalType": "uint256[]",
          "name": "characterHp",
          "type": "uint256[]"
        },
        {
          "internalType": "uint256[]",
          "name": "characterAttackDmg",
          "type": "uint256[]"
        },
        {
          "internalType": "string",
          "name": "bossName",
          "type": "string"
        },
        {
          "internalType": "string",
          "name": "bossImageURI",
          "type": "string"
        },
        {
          "internalType": "uint256",
          "name": "bossHp",
          "type": "uint256"
        },
        {
          "internalType": "uint256",
          "name": "bossAttackDamage",
          "type": "uint256"
        }
      ],
      "stateMutability": "nonpayable",
      "type": "constructor"
    },
    {
      "anonymous": false,
      "inputs": [
        {
          "indexed": true,
          "internalType": "address",
          "name": "owner",
          "type": "address"
        },
        {
          "indexed": true,
          "internalType": "address",
          "name": "approved",
          "type": "address"
        },
        {
          "indexed": true,
          "internalType": "uint256",
          "name": "tokenId",
          "type": "uint256"
        }
      ],
      "name": "Approval",
      "type": "event"
    },
    {
      "anonymous": false,
      "inputs": [
        {
          "indexed": true,
          "internalType": "address",
          "name": "owner",
          "type": "address"
        },
        {
          "indexed": true,
          "internalType": "address",
          "name": "operator",
          "type": "address"
        },
        {
          "indexed": false,
          "internalType": "bool",
          "name": "approved",
          "type": "bool"
        }
      ],
      "name": "ApprovalForAll",
      "type": "event"
    },
    {
      "anonymous": false,
      "inputs": [
        {
          "indexed": false,
          "internalType": "address",
          "name": "sender",
          "type": "address"
        },
        {
          "indexed": false,
          "internalType": "uint256",
          "name": "newBossHp",
          "type": "uint256"
        },
        {
          "indexed": false,
          "internalType": "uint256",
          "name": "newPlayerHp",
          "type": "uint256"
        }
      ],
      "name": "AttackComplete",
      "type": "event"
    },
    {
      "anonymous": false,
      "inputs": [
        {
          "indexed": false,
          "internalType": "address",
          "name": "sender",
          "type": "address"
        },
        {
          "indexed": false,
          "internalType": "uint256",
          "name": "tokenId",
          "type": "uint256"
        },
        {
          "indexed": false,
          "internalType": "uint256",
          "name": "characterIndex",
          "type": "uint256"
        }
      ],
      "name": "CharacterNFTMinted",
      "type": "event"
    },
    {
      "anonymous": false,
      "inputs": [
        {
          "indexed": true,
          "internalType": "address",
          "name": "from",
          "type": "address"
        },
        {
          "indexed": true,
          "internalType": "address",
          "name": "to",
          "type": "address"
        },
        {
          "indexed": true,
          "internalType": "uint256",
          "name": "tokenId",
          "type": "uint256"
        }
      ],
      "name": "Transfer",
      "type": "event"
    },
    {
      "inputs": [
        {
          "internalType": "address",
          "name": "to",
          "type": "address"
        },
        {
          "internalType": "uint256",
          "name": "tokenId",
          "type": "uint256"
        }
      ],
      "name": "approve",
      "outputs": [],
      "stateMutability": "nonpayable",
      "type": "function"
    },
    {
      "inputs": [],
      "name": "attackBoss",
      "outputs": [],
      "stateMutability": "nonpayable",
      "type": "function"
    },
    {
      "inputs": [
        {
          "internalType": "address",
          "name": "owner",
          "type": "address"
        }
      ],
      "name": "balanceOf",
      "outputs": [
        {
          "internalType": "uint256",
          "name": "",
          "type": "uint256"
        }
      ],
      "stateMutability": "view",
      "type": "function"
    },
    {
      "inputs": [],
      "name": "bigBoss",
      "outputs": [
        {
          "internalType": "string",
          "name": "name",
          "type": "string"
        },
        {
          "internalType": "string",
          "name": "imageURI",
          "type": "string"
        },
        {
          "internalType": "uint256",
          "name": "hp",
          "type": "uint256"
        },
        {
          "internalType": "uint256",
          "name": "maxHp",
          "type": "uint256"
        },
        {
          "internalType": "uint256",
          "name": "attackDamage",
          "type": "uint256"
        }
      ],
      "stateMutability": "view",
      "type": "function"
    },
    {
      "inputs": [],
      "name": "checkIfUserHasNFT",
      "outputs": [
        {
          "components": [
            {
              "internalType": "uint256",
              "name": "characterIndex",
              "type": "uint256"
            },
            {
              "internalType": "string",
              "name": "name",
              "type": "string"
            },
            {
              "internalType": "string",
              "name": "imageURI",
              "type": "string"
            },
            {
              "internalType": "uint256",
              "name": "hp",
              "type": "uint256"
            },
            {
              "internalType": "uint256",
              "name": "maxHp",
              "type": "uint256"
            },
            {
              "internalType": "uint256",
              "name": "attackDamage",
              "type": "uint256"
            }
          ],
          "internalType": "struct BufficornBattle.CharacterAttributes",
          "name": "",
          "type": "tuple"
        }
      ],
      "stateMutability": "view",
      "type": "function"
    },
    {
      "inputs": [],
      "name": "getAllDefaultCharacters",
      "outputs": [
        {
          "components": [
            {
              "internalType": "uint256",
              "name": "characterIndex",
              "type": "uint256"
            },
            {
              "internalType": "string",
              "name": "name",
              "type": "string"
            },
            {
              "internalType": "string",
              "name": "imageURI",
              "type": "string"
            },
            {
              "internalType": "uint256",
              "name": "hp",
              "type": "uint256"
            },
            {
              "internalType": "uint256",
              "name": "maxHp",
              "type": "uint256"
            },
            {
              "internalType": "uint256",
              "name": "attackDamage",
              "type": "uint256"
            }
          ],
          "internalType": "struct BufficornBattle.CharacterAttributes[]",
          "name": "",
          "type": "tuple[]"
        }
      ],
      "stateMutability": "view",
      "type": "function"
    },
    {
      "inputs": [
        {
          "internalType": "uint256",
          "name": "tokenId",
          "type": "uint256"
        }
      ],
      "name": "getApproved",
      "outputs": [
        {
          "internalType": "address",
          "name": "",
          "type": "address"
        }
      ],
      "stateMutability": "view",
      "type": "function"
    },
    {
      "inputs": [],
      "name": "getBigBoss",
      "outputs": [
        {
          "components": [
            {
              "internalType": "string",
              "name": "name",
              "type": "string"
            },
            {
              "internalType": "string",
              "name": "imageURI",
              "type": "string"
            },
            {
              "internalType": "uint256",
              "name": "hp",
              "type": "uint256"
            },
            {
              "internalType": "uint256",
              "name": "maxHp",
              "type": "uint256"
            },
            {
              "internalType": "uint256",
              "name": "attackDamage",
              "type": "uint256"
            }
          ],
          "internalType": "struct BufficornBattle.BigBoss",
          "name": "",
          "type": "tuple"
        }
      ],
      "stateMutability": "view",
      "type": "function"
    },
    {
      "inputs": [],
      "name": "heal",
      "outputs": [],
      "stateMutability": "nonpayable",
      "type": "function"
    },
    {
      "inputs": [
        {
          "internalType": "address",
          "name": "owner",
          "type": "address"
        },
        {
          "internalType": "address",
          "name": "operator",
          "type": "address"
        }
      ],
      "name": "isApprovedForAll",
      "outputs": [
        {
          "internalType": "bool",
          "name": "",
          "type": "bool"
        }
      ],
      "stateMutability": "view",
      "type": "function"
    },
    {
      "inputs": [
        {
          "internalType": "uint256",
          "name": "_characterIndex",
          "type": "uint256"
        }
      ],
      "name": "mintCharacterNFT",
      "outputs": [],
      "stateMutability": "nonpayable",
      "type": "function"
    },
    {
      "inputs": [],
      "name": "name",
      "outputs": [
        {
          "internalType": "string",
          "name": "",
          "type": "string"
        }
      ],
      "stateMutability": "view",
      "type": "function"
    },
    {
      "inputs": [
        {
          "internalType": "uint256",
          "name": "",
          "type": "uint256"
        }
      ],
      "name": "nftHolderAttributes",
      "outputs": [
        {
          "internalType": "uint256",
          "name": "characterIndex",
          "type": "uint256"
        },
        {
          "internalType": "string",
          "name": "name",
          "type": "string"
        },
        {
          "internalType": "string",
          "name": "imageURI",
          "type": "string"
        },
        {
          "internalType": "uint256",
          "name": "hp",
          "type": "uint256"
        },
        {
          "internalType": "uint256",
          "name": "maxHp",
          "type": "uint256"
        },
        {
          "internalType": "uint256",
          "name": "attackDamage",
          "type": "uint256"
        }
      ],
      "stateMutability": "view",
      "type": "function"
    },
    {
      "inputs": [
        {
          "internalType": "address",
          "name": "",
          "type": "address"
        }
      ],
      "name": "nftHolders",
      "outputs": [
        {
          "internalType": "uint256",
          "name": "",
          "type": "uint256"
        }
      ],
      "stateMutability": "view",
      "type": "function"
    },
    {
      "inputs": [
        {
          "internalType": "uint256",
          "name": "tokenId",
          "type": "uint256"
        }
      ],
      "name": "ownerOf",
      "outputs": [
        {
          "internalType": "address",
          "name": "",
          "type": "address"
        }
      ],
      "stateMutability": "view",
      "type": "function"
    },
    {
      "inputs": [
        {
          "internalType": "address",
          "name": "",
          "type": "address"
        }
      ],
      "name": "pointsBalance",
      "outputs": [
        {
          "internalType": "uint256",
          "name": "",
          "type": "uint256"
        }
      ],
      "stateMutability": "view",
      "type": "function"
    },
    {
      "inputs": [
        {
          "internalType": "address",
          "name": "from",
          "type": "address"
        },
        {
          "internalType": "address",
          "name": "to",
          "type": "address"
        },
        {
          "internalType": "uint256",
          "name": "tokenId",
          "type": "uint256"
        }
      ],
      "name": "safeTransferFrom",
      "outputs": [],
      "stateMutability": "nonpayable",
      "type": "function"
    },
    {
      "inputs": [
        {
          "internalType": "address",
          "name": "from",
          "type": "address"
        },
        {
          "internalType": "address",
          "name": "to",
          "type": "address"
        },
        {
          "internalType": "uint256",
          "name": "tokenId",
          "type": "uint256"
        },
        {
          "internalType": "bytes",
          "name": "data",
          "type": "bytes"
        }
      ],
      "name": "safeTransferFrom",
      "outputs": [],
      "stateMutability": "nonpayable",
      "type": "function"
    },
    {
      "inputs": [
        {
          "internalType": "address",
          "name": "operator",
          "type": "address"
        },
        {
          "internalType": "bool",
          "name": "approved",
          "type": "bool"
        }
      ],
      "name": "setApprovalForAll",
      "outputs": [],
      "stateMutability": "nonpayable",
      "type": "function"
    },
    {
      "inputs": [
        {
          "internalType": "bytes4",
          "name": "interfaceId",
          "type": "bytes4"
        }
      ],
      "name": "supportsInterface",
      "outputs": [
        {
          "internalType": "bool",
          "name": "",
          "type": "bool"
        }
      ],
      "stateMutability": "view",
      "type": "function"
    },
    {
      "inputs": [],
      "name": "symbol",
      "outputs": [
        {
          "internalType": "string",
          "name": "",
          "type": "string"
        }
      ],
      "stateMutability": "view",
      "type": "function"
    },
    {
      "inputs": [
        {
          "internalType": "uint256",
          "name": "_tokenId",
          "type": "uint256"
        }
      ],
      "name": "tokenURI",
      "outputs": [
        {
          "internalType": "string",
          "name": "",
          "type": "string"
        }
      ],
      "stateMutability": "view",
      "type": "function"
    },
    {
      "inputs": [
        {
          "internalType": "address",
          "name": "from",
          "type": "address"
        },
        {
          "internalType": "address",
          "name": "to",
          "type": "address"
        },
        {
          "internalType": "uint256",
          "name": "tokenId",
          "type": "uint256"
        }
      ],
      "name": "transferFrom",
      "outputs": [],
      "stateMutability": "nonpayable",
      "type": "function"
    }
  ],
  "bytecode": "0x608060405260006010553480156200001657600080fd5b50604051620064e1380380620064e183398181016040528101906200003c919062000a90565b6040518060400160405280601081526020017f4275666669636f726e20426174746c65000000000000000000000000000000008152506040518060400160405280600981526020017f4255464649434f524e00000000000000000000000000000000000000000000008152508160009081620000b9919062000e54565b508060019081620000cb919062000e54565b5050506040518060a0016040528085815260200184815260200183815260200183815260200182815250600b60008201518160000190816200010e919062000e54565b50602082015181600101908162000126919062000e54565b50604082015181600201556060820151816003015560808201518160040155905050620002a96040518060600160405280602a8152602001620064b7602a9139600b6000018054620001789062000c4d565b80601f0160208091040260200160405190810160405280929190818152602001828054620001a69062000c4d565b8015620001f75780601f10620001cb57610100808354040283529160200191620001f7565b820191906000526020600020905b815481529060010190602001808311620001d957829003601f168201915b5050505050600b60020154600b6001018054620002149062000c4d565b80601f0160208091040260200160405190810160405280929190818152602001828054620002429062000c4d565b8015620002935780601f10620002675761010080835404028352916020019162000293565b820191906000526020600020905b8154815290600101906020018083116200027557829003601f168201915b50505050506200060560201b62001efa1760201c565b60005b8851811015620005df5760076040518060c001604052808381526020018b8481518110620002df57620002de62000f3b565b5b602002602001015181526020018a848151811062000302576200030162000f3b565b5b6020026020010151815260200189848151811062000325576200032462000f3b565b5b6020026020010151815260200189848151811062000348576200034762000f3b565b5b602002602001015181526020018884815181106200036b576200036a62000f3b565b5b60200260200101518152509080600181540180825580915050600190039060005260206000209060060201600090919091909150600082015181600001556020820151816001019081620003c0919062000e54565b506040820151816002019081620003d8919062000e54565b50606082015181600301556080820151816004015560a08201518160050155505060006007828154811062000412576200041162000f3b565b5b90600052602060002090600602016040518060c001604052908160008201548152602001600182018054620004479062000c4d565b80601f0160208091040260200160405190810160405280929190818152602001828054620004759062000c4d565b8015620004c65780601f106200049a57610100808354040283529160200191620004c6565b820191906000526020600020905b815481529060010190602001808311620004a857829003601f168201915b50505050508152602001600282018054620004e19062000c4d565b80601f01602080910402602001604051908101604052809291908181526020018280546200050f9062000c4d565b8015620005605780601f10620005345761010080835404028352916020019162000560565b820191906000526020600020905b8154815290600101906020018083116200054257829003601f168201915b5050505050815260200160038201548152602001600482015481526020016005820154815250509050620005c760405180606001604052806025815260200162006492602591398260200151836060015184604001516200060560201b62001efa1760201c565b50600181620005d7919062000f99565b9050620002ac565b50620005f76006620006b160201b62001f9c1760201c565b505050505050505062001099565b620006ab8484848460405160240162000622949392919062001037565b6040516020818303038152906040527f5d1a971a000000000000000000000000000000000000000000000000000000007bffffffffffffffffffffffffffffffffffffffffffffffffffffffff19166020820180517bffffffffffffffffffffffffffffffffffffffffffffffffffffffff8381831617835250505050620006c760201b60201c565b50505050565b6001816000016000828254019250508190555050565b60008151905060006a636f6e736f6c652e6c6f679050602083016000808483855afa5050505050565b6000604051905090565b600080fd5b600080fd5b600080fd5b6000601f19601f8301169050919050565b7f4e487b7100000000000000000000000000000000000000000000000000000000600052604160045260246000fd5b620007548262000709565b810181811067ffffffffffffffff821117156200077657620007756200071a565b5b80604052505050565b60006200078b620006f0565b905062000799828262000749565b919050565b600067ffffffffffffffff821115620007bc57620007bb6200071a565b5b602082029050602081019050919050565b600080fd5b600080fd5b600067ffffffffffffffff821115620007f557620007f46200071a565b5b620008008262000709565b9050602081019050919050565b60005b838110156200082d57808201518184015260208101905062000810565b60008484015250505050565b6000620008506200084a84620007d7565b6200077f565b9050828152602081018484840111156200086f576200086e620007d2565b5b6200087c8482856200080d565b509392505050565b600082601f8301126200089c576200089b62000704565b5b8151620008ae84826020860162000839565b91505092915050565b6000620008ce620008c8846200079e565b6200077f565b90508083825260208201905060208402830185811115620008f457620008f3620007cd565b5b835b818110156200094257805167ffffffffffffffff8111156200091d576200091c62000704565b5b8086016200092c898262000884565b85526020850194505050602081019050620008f6565b5050509392505050565b600082601f83011262000964576200096362000704565b5b815162000976848260208601620008b7565b91505092915050565b600067ffffffffffffffff8211156200099d576200099c6200071a565b5b602082029050602081019050919050565b6000819050919050565b620009c381620009ae565b8114620009cf57600080fd5b50565b600081519050620009e381620009b8565b92915050565b600062000a00620009fa846200097f565b6200077f565b9050808382526020820190506020840283018581111562000a265762000a25620007cd565b5b835b8181101562000a53578062000a3e8882620009d2565b84526020840193505060208101905062000a28565b5050509392505050565b600082601f83011262000a755762000a7462000704565b5b815162000a87848260208601620009e9565b91505092915050565b600080600080600080600080610100898b03121562000ab45762000ab3620006fa565b5b600089015167ffffffffffffffff81111562000ad55762000ad4620006ff565b5b62000ae38b828c016200094c565b985050602089015167ffffffffffffffff81111562000b075762000b06620006ff565b5b62000b158b828c016200094c565b975050604089015167ffffffffffffffff81111562000b395762000b38620006ff565b5b62000b478b828c0162000a5d565b965050606089015167ffffffffffffffff81111562000b6b5762000b6a620006ff565b5b62000b798b828c0162000a5d565b955050608089015167ffffffffffffffff81111562000b9d5762000b9c620006ff565b5b62000bab8b828c0162000884565b94505060a089015167ffffffffffffffff81111562000bcf5762000bce620006ff565b5b62000bdd8b828c0162000884565b93505060c062000bf08b828c01620009d2565b92505060e062000c038b828c01620009d2565b9150509295985092959890939650565b600081519050919050565b7f4e487b7100000000000000000000000000000000000000000000000000000000600052602260045260246000fd5b6000600282049050600182168062000c6657607f821691505b60208210810362000c7c5762000c7b62000c1e565b5b50919050565b60008190508160005260206000209050919050565b60006020601f8301049050919050565b600082821b905092915050565b60006008830262000ce67fffffffffffffffffffffffffffffffffffffffffffffffffffffffffffffffff8262000ca7565b62000cf2868362000ca7565b95508019841693508086168417925050509392505050565b6000819050919050565b600062000d3562000d2f62000d2984620009ae565b62000d0a565b620009ae565b9050919050565b6000819050919050565b62000d518362000d14565b62000d6962000d608262000d3c565b84845462000cb4565b825550505050565b600090565b62000d8062000d71565b62000d8d81848462000d46565b505050565b5b8181101562000db55762000da960008262000d76565b60018101905062000d93565b5050565b601f82111562000e045762000dce8162000c82565b62000dd98462000c97565b8101602085101562000de9578190505b62000e0162000df88562000c97565b83018262000d92565b50505b505050565b600082821c905092915050565b600062000e296000198460080262000e09565b1980831691505092915050565b600062000e44838362000e16565b9150826002028217905092915050565b62000e5f8262000c13565b67ffffffffffffffff81111562000e7b5762000e7a6200071a565b5b62000e87825462000c4d565b62000e9482828562000db9565b600060209050601f83116001811462000ecc576000841562000eb7578287015190505b62000ec3858262000e36565b86555062000f33565b601f19841662000edc8662000c82565b60005b8281101562000f065784890151825560018201915060208501945060208101905062000edf565b8683101562000f26578489015162000f22601f89168262000e16565b8355505b6001600288020188555050505b505050505050565b7f4e487b7100000000000000000000000000000000000000000000000000000000600052603260045260246000fd5b7f4e487b7100000000000000000000000000000000000000000000000000000000600052601160045260246000fd5b600062000fa682620009ae565b915062000fb383620009ae565b925082820190508082111562000fce5762000fcd62000f6a565b5b92915050565b600082825260208201905092915050565b600062000ff28262000c13565b62000ffe818562000fd4565b9350620010108185602086016200080d565b6200101b8162000709565b840191505092915050565b6200103181620009ae565b82525050565b6000608082019050818103600083015262001053818762000fe5565b9050818103602083015262001069818662000fe5565b90506200107a604083018562001026565b81810360608301526200108e818462000fe5565b905095945050505050565b6153e980620010a96000396000f3fe608060405234801561001057600080fd5b506004361061014d5760003560e01c80637df124a1116100c3578063b953084e1161007c578063b953084e146103b9578063c87b56dd146103d7578063c8cf27f414610407578063d4f24c5b14610425578063e985e9c51461042f578063f8b81ef71461045f5761014d565b80637df124a1146102dc57806395d89b411461030c57806398da4c951461032a578063a22cb4651461035f578063a9c326791461037b578063b88d4fde1461039d5761014d565b8063095ea7b311610115578063095ea7b3146101f857806323b872dd1461021457806325ca4cff1461023057806342842e0e146102605780636352211e1461027c57806370a08231146102ac5761014d565b806301ffc9a7146101525780630434fe0b146101825780630665f9611461018c57806306fdde03146101aa578063081812fc146101c8575b600080fd5b61016c6004803603810190610167919061349c565b61047b565b60405161017991906134e4565b60405180910390f35b61018a61055d565b005b610194610763565b6040516101a19190613625565b60405180910390f35b6101b26108bf565b6040516101bf9190613691565b60405180910390f35b6101e260048036038101906101dd91906136df565b610951565b6040516101ef919061374d565b60405180910390f35b610212600480360381019061020d9190613794565b610997565b005b61022e600480360381019061022991906137d4565b610aae565b005b61024a60048036038101906102459190613827565b610b0e565b6040516102579190613863565b60405180910390f35b61027a600480360381019061027591906137d4565b610b26565b005b610296600480360381019061029191906136df565b610b46565b6040516102a3919061374d565b60405180910390f35b6102c660048036038101906102c19190613827565b610bcc565b6040516102d39190613863565b60405180910390f35b6102f660048036038101906102f19190613827565b610c83565b6040516103039190613863565b60405180910390f35b610314610c9b565b6040516103219190613691565b60405180910390f35b610344600480360381019061033f91906136df565b610d2d565b6040516103569695949392919061387e565b60405180910390f35b61037960048036038101906103749190613919565b610e79565b005b610383610e8f565b604051610394959493929190613959565b60405180910390f35b6103b760048036038101906103b29190613aef565b610fc3565b005b6103c1611025565b6040516103ce9190613cc4565b60405180910390f35b6103f160048036038101906103ec91906136df565b6111d0565b6040516103fe9190613691565b60405180910390f35b61040f6113eb565b60405161041c9190613d76565b60405180910390f35b61042d6115c3565b005b61044960048036038101906104449190613d98565b611b3e565b60405161045691906134e4565b60405180910390f35b610479600480360381019061047491906136df565b611bd2565b005b60007f80ac58cd000000000000000000000000000000000000000000000000000000007bffffffffffffffffffffffffffffffffffffffffffffffffffffffff1916827bffffffffffffffffffffffffffffffffffffffffffffffffffffffff1916148061054657507f5b5e139f000000000000000000000000000000000000000000000000000000007bffffffffffffffffffffffffffffffffffffffffffffffffffffffff1916827bffffffffffffffffffffffffffffffffffffffffffffffffffffffff1916145b80610556575061055582611fb2565b5b9050919050565b6000600960003373ffffffffffffffffffffffffffffffffffffffff1673ffffffffffffffffffffffffffffffffffffffff16815260200190815260200160002054905060006008600083815260200190815260200160002090506105c182610b46565b73ffffffffffffffffffffffffffffffffffffffff163373ffffffffffffffffffffffffffffffffffffffff161461062e576040517f08c379a000000000000000000000000000000000000000000000000000000000815260040161062590613e4a565b60405180910390fd5b8060030154816004015411610678576040517f08c379a000000000000000000000000000000000000000000000000000000000815260040161066f90613edc565b60405180910390fd5b601e600a60003373ffffffffffffffffffffffffffffffffffffffff1673ffffffffffffffffffffffffffffffffffffffff1681526020019081526020016000205410156106fb576040517f08c379a00000000000000000000000000000000000000000000000000000000081526004016106f290613f6e565b60405180910390fd5b601e600a60003373ffffffffffffffffffffffffffffffffffffffff1673ffffffffffffffffffffffffffffffffffffffff168152602001908152602001600020600082825461074b9190613fbd565b92505081905550806004015481600301819055505050565b61076b6133cb565b600b6040518060a001604052908160008201805461078890614020565b80601f01602080910402602001604051908101604052809291908181526020018280546107b490614020565b80156108015780601f106107d657610100808354040283529160200191610801565b820191906000526020600020905b8154815290600101906020018083116107e457829003601f168201915b5050505050815260200160018201805461081a90614020565b80601f016020809104026020016040519081016040528092919081815260200182805461084690614020565b80156108935780601f1061086857610100808354040283529160200191610893565b820191906000526020600020905b81548152906001019060200180831161087657829003601f168201915b505050505081526020016002820154815260200160038201548152602001600482015481525050905090565b6060600080546108ce90614020565b80601f01602080910402602001604051908101604052809291908181526020018280546108fa90614020565b80156109475780601f1061091c57610100808354040283529160200191610947565b820191906000526020600020905b81548152906001019060200180831161092a57829003601f168201915b5050505050905090565b600061095c8261201c565b6004600083815260200190815260200160002060009054906101000a900473ffffffffffffffffffffffffffffffffffffffff169050919050565b60006109a282610b46565b90508073ffffffffffffffffffffffffffffffffffffffff168373ffffffffffffffffffffffffffffffffffffffff1603610a12576040517f08c379a0000000000000000000000000000000000000000000000000000000008152600401610a09906140c3565b60405180910390fd5b8073ffffffffffffffffffffffffffffffffffffffff16610a31612067565b73ffffffffffffffffffffffffffffffffffffffff161480610a605750610a5f81610a5a612067565b611b3e565b5b610a9f576040517f08c379a0000000000000000000000000000000000000000000000000000000008152600401610a9690614155565b60405180910390fd5b610aa9838361206f565b505050565b610abf610ab9612067565b82612128565b610afe576040517f08c379a0000000000000000000000000000000000000000000000000000000008152600401610af5906141e7565b60405180910390fd5b610b098383836121bd565b505050565b600a6020528060005260406000206000915090505481565b610b4183838360405180602001604052806000815250610fc3565b505050565b600080610b52836124b6565b9050600073ffffffffffffffffffffffffffffffffffffffff168173ffffffffffffffffffffffffffffffffffffffff1603610bc3576040517f08c379a0000000000000000000000000000000000000000000000000000000008152600401610bba90614253565b60405180910390fd5b80915050919050565b60008073ffffffffffffffffffffffffffffffffffffffff168273ffffffffffffffffffffffffffffffffffffffff1603610c3c576040517f08c379a0000000000000000000000000000000000000000000000000000000008152600401610c33906142e5565b60405180910390fd5b600360008373ffffffffffffffffffffffffffffffffffffffff1673ffffffffffffffffffffffffffffffffffffffff168152602001908152602001600020549050919050565b60096020528060005260406000206000915090505481565b606060018054610caa90614020565b80601f0160208091040260200160405190810160405280929190818152602001828054610cd690614020565b8015610d235780601f10610cf857610100808354040283529160200191610d23565b820191906000526020600020905b815481529060010190602001808311610d0657829003601f168201915b5050505050905090565b6008602052806000526040600020600091509050806000015490806001018054610d5690614020565b80601f0160208091040260200160405190810160405280929190818152602001828054610d8290614020565b8015610dcf5780601f10610da457610100808354040283529160200191610dcf565b820191906000526020600020905b815481529060010190602001808311610db257829003601f168201915b505050505090806002018054610de490614020565b80601f0160208091040260200160405190810160405280929190818152602001828054610e1090614020565b8015610e5d5780601f10610e3257610100808354040283529160200191610e5d565b820191906000526020600020905b815481529060010190602001808311610e4057829003601f168201915b5050505050908060030154908060040154908060050154905086565b610e8b610e84612067565b83836124f3565b5050565b600b806000018054610ea090614020565b80601f0160208091040260200160405190810160405280929190818152602001828054610ecc90614020565b8015610f195780601f10610eee57610100808354040283529160200191610f19565b820191906000526020600020905b815481529060010190602001808311610efc57829003601f168201915b505050505090806001018054610f2e90614020565b80601f0160208091040260200160405190810160405280929190818152602001828054610f5a90614020565b8015610fa75780601f10610f7c57610100808354040283529160200191610fa7565b820191906000526020600020905b815481529060010190602001808311610f8a57829003601f168201915b5050505050908060020154908060030154908060040154905085565b610fd4610fce612067565b83612128565b611013576040517f08c379a000000000000000000000000000000000000000000000000000000000815260040161100a906141e7565b60405180910390fd5b61101f8484848461265f565b50505050565b60606007805480602002602001604051908101604052809291908181526020016000905b828210156111c757838290600052602060002090600602016040518060c00160405290816000820154815260200160018201805461108690614020565b80601f01602080910402602001604051908101604052809291908181526020018280546110b290614020565b80156110ff5780601f106110d4576101008083540402835291602001916110ff565b820191906000526020600020905b8154815290600101906020018083116110e257829003601f168201915b5050505050815260200160028201805461111890614020565b80601f016020809104026020016040519081016040528092919081815260200182805461114490614020565b80156111915780601f1061116657610100808354040283529160200191611191565b820191906000526020600020905b81548152906001019060200180831161117457829003601f168201915b50505050508152602001600382015481526020016004820154815260200160058201548152505081526020019060010190611049565b50505050905090565b60606000600860008481526020019081526020016000206040518060c00160405290816000820154815260200160018201805461120c90614020565b80601f016020809104026020016040519081016040528092919081815260200182805461123890614020565b80156112855780601f1061125a57610100808354040283529160200191611285565b820191906000526020600020905b81548152906001019060200180831161126857829003601f168201915b5050505050815260200160028201805461129e90614020565b80601f01602080910402602001604051908101604052809291908181526020018280546112ca90614020565b80156113175780601f106112ec57610100808354040283529160200191611317565b820191906000526020600020905b8154815290600101906020018083116112fa57829003601f168201915b5050505050815260200160038201548152602001600482015481526020016005820154815250509050600061134f82606001516126bb565b9050600061136083608001516126bb565b905060006113718460a001516126bb565b905060006113b78560200151611386896126bb565b87604001518787876040516020016113a396959493929190614613565b604051602081830303815290604052612789565b90506000816040516020016113cc9190614704565b6040516020818303038152906040529050809650505050505050919050565b6113f36133fa565b6000600960003373ffffffffffffffffffffffffffffffffffffffff1673ffffffffffffffffffffffffffffffffffffffff16815260200190815260200160002054905060008111156115b257600860008281526020019081526020016000206040518060c00160405290816000820154815260200160018201805461147890614020565b80601f01602080910402602001604051908101604052809291908181526020018280546114a490614020565b80156114f15780601f106114c6576101008083540402835291602001916114f1565b820191906000526020600020905b8154815290600101906020018083116114d457829003601f168201915b5050505050815260200160028201805461150a90614020565b80601f016020809104026020016040519081016040528092919081815260200182805461153690614020565b80156115835780601f1061155857610100808354040283529160200191611583565b820191906000526020600020905b81548152906001019060200180831161156657829003601f168201915b5050505050815260200160038201548152602001600482015481526020016005820154815250509150506115c0565b6115ba6133fa565b80925050505b90565b6000600960003373ffffffffffffffffffffffffffffffffffffffff1673ffffffffffffffffffffffffffffffffffffffff16815260200190815260200160002054905060006008600083815260200190815260200160002090506116d66040518060600160405280603c8152602001615378603c913982600101805461164990614020565b80601f016020809104026020016040519081016040528092919081815260200182805461167590614020565b80156116c25780601f10611697576101008083540402835291602001916116c2565b820191906000526020600020905b8154815290600101906020018083116116a557829003601f168201915b505050505083600301548460050154612920565b6117ae6040518060400160405280601b81526020017f426f73732025732068617320257320485020616e642025732041440000000000815250600b600001805461171f90614020565b80601f016020809104026020016040519081016040528092919081815260200182805461174b90614020565b80156117985780601f1061176d57610100808354040283529160200191611798565b820191906000526020600020905b81548152906001019060200180831161177b57829003601f168201915b5050505050600b60020154600b60040154612920565b60008160030154116117f5576040517f08c379a00000000000000000000000000000000000000000000000000000000081526004016117ec90614798565b60405180910390fd5b6000600b600201541161183d576040517f08c379a00000000000000000000000000000000000000000000000000000000081526004016118349061482a565b60405180910390fd5b8060050154600b60020154101561185e576000600b600201819055506118d3565b8060050154600b600201546118739190613fbd565b600b60020181905550600a8060003373ffffffffffffffffffffffffffffffffffffffff1673ffffffffffffffffffffffffffffffffffffffff16815260200190815260200160002060008282546118cb919061484a565b925050819055505b600b60040154816003015410156118f35760008160030181905550611aa9565b60076118ff600a6129c2565b10156119db57600b60040154816003015461191a9190613fbd565b81600301819055506119d660405180606001604052806025815260200161529860259139600b600001805461194e90614020565b80601f016020809104026020016040519081016040528092919081815260200182805461197a90614020565b80156119c75780601f1061199c576101008083540402835291602001916119c7565b820191906000526020600020905b8154815290600101906020018083116119aa57829003601f168201915b50505050508360030154612a1e565b611aa8565b611aa76040518060400160405280600b81526020017f2573206d6973736564210a000000000000000000000000000000000000000000815250600b6000018054611a2490614020565b80601f0160208091040260200160405190810160405280929190818152602001828054611a5090614020565b8015611a9d5780601f10611a7257610100808354040283529160200191611a9d565b820191906000526020600020905b815481529060010190602001808311611a8057829003601f168201915b5050505050612abd565b5b5b611ad06040518060600160405280602581526020016152bd60259139600b60020154612b59565b611af6604051806060016040528060288152602001615322602891398260030154612b59565b7f32bd565ee3f2cb5ddd742bbecd6048d3e9abe90b3827a40c2b72d232e71e3c9d33600b600201548360030154604051611b329392919061487e565b60405180910390a15050565b6000600560008473ffffffffffffffffffffffffffffffffffffffff1673ffffffffffffffffffffffffffffffffffffffff16815260200190815260200160002060008373ffffffffffffffffffffffffffffffffffffffff1673ffffffffffffffffffffffffffffffffffffffff16815260200190815260200160002060009054906101000a900460ff16905092915050565b6000611bde6006612bf5565b9050611bea3382612c03565b6040518060c0016040528083815260200160078481548110611c0f57611c0e6148b5565b5b90600052602060002090600602016001018054611c2b90614020565b80601f0160208091040260200160405190810160405280929190818152602001828054611c5790614020565b8015611ca45780601f10611c7957610100808354040283529160200191611ca4565b820191906000526020600020905b815481529060010190602001808311611c8757829003601f168201915b5050505050815260200160078481548110611cc257611cc16148b5565b5b90600052602060002090600602016002018054611cde90614020565b80601f0160208091040260200160405190810160405280929190818152602001828054611d0a90614020565b8015611d575780601f10611d2c57610100808354040283529160200191611d57565b820191906000526020600020905b815481529060010190602001808311611d3a57829003601f168201915b5050505050815260200160078481548110611d7557611d746148b5565b5b906000526020600020906006020160030154815260200160078481548110611da057611d9f6148b5565b5b906000526020600020906006020160040154815260200160078481548110611dcb57611dca6148b5565b5b90600052602060002090600602016005015481525060086000838152602001908152602001600020600082015181600001556020820151816001019081611e129190614a90565b506040820151816002019081611e289190614a90565b50606082015181600301556080820151816004015560a08201518160050155905050611e6d6040518060600160405280602e815260200161534a602e91398284612c21565b80600960003373ffffffffffffffffffffffffffffffffffffffff1673ffffffffffffffffffffffffffffffffffffffff16815260200190815260200160002081905550611ebb6006611f9c565b7f4bc303fd457a97b4691b9af582ce71868a3d258638c8d4f8c60988a0f0bfb8cd338284604051611eee9392919061487e565b60405180910390a15050565b611f9684848484604051602401611f149493929190614b62565b6040516020818303038152906040527f5d1a971a000000000000000000000000000000000000000000000000000000007bffffffffffffffffffffffffffffffffffffffffffffffffffffffff19166020820180517bffffffffffffffffffffffffffffffffffffffffffffffffffffffff8381831617835250505050612cc0565b50505050565b6001816000016000828254019250508190555050565b60007f01ffc9a7000000000000000000000000000000000000000000000000000000007bffffffffffffffffffffffffffffffffffffffffffffffffffffffff1916827bffffffffffffffffffffffffffffffffffffffffffffffffffffffff1916149050919050565b61202581612ce9565b612064576040517f08c379a000000000000000000000000000000000000000000000000000000000815260040161205b90614253565b60405180910390fd5b50565b600033905090565b816004600083815260200190815260200160002060006101000a81548173ffffffffffffffffffffffffffffffffffffffff021916908373ffffffffffffffffffffffffffffffffffffffff160217905550808273ffffffffffffffffffffffffffffffffffffffff166120e283610b46565b73ffffffffffffffffffffffffffffffffffffffff167f8c5be1e5ebec7d5bd14f71427d1e84f3dd0314c0f7b2291e5b200ac8c7c3b92560405160405180910390a45050565b60008061213483610b46565b90508073ffffffffffffffffffffffffffffffffffffffff168473ffffffffffffffffffffffffffffffffffffffff16148061217657506121758185611b3e565b5b806121b457508373ffffffffffffffffffffffffffffffffffffffff1661219c84610951565b73ffffffffffffffffffffffffffffffffffffffff16145b91505092915050565b8273ffffffffffffffffffffffffffffffffffffffff166121dd82610b46565b73ffffffffffffffffffffffffffffffffffffffff1614612233576040517f08c379a000000000000000000000000000000000000000000000000000000000815260040161222a90614c2e565b60405180910390fd5b600073ffffffffffffffffffffffffffffffffffffffff168273ffffffffffffffffffffffffffffffffffffffff16036122a2576040517f08c379a000000000000000000000000000000000000000000000000000000000815260040161229990614cc0565b60405180910390fd5b6122af8383836001612d2a565b8273ffffffffffffffffffffffffffffffffffffffff166122cf82610b46565b73ffffffffffffffffffffffffffffffffffffffff1614612325576040517f08c379a000000000000000000000000000000000000000000000000000000000815260040161231c90614c2e565b60405180910390fd5b6004600082815260200190815260200160002060006101000a81549073ffffffffffffffffffffffffffffffffffffffff02191690556001600360008573ffffffffffffffffffffffffffffffffffffffff1673ffffffffffffffffffffffffffffffffffffffff168152602001908152602001600020600082825403925050819055506001600360008473ffffffffffffffffffffffffffffffffffffffff1673ffffffffffffffffffffffffffffffffffffffff16815260200190815260200160002060008282540192505081905550816002600083815260200190815260200160002060006101000a81548173ffffffffffffffffffffffffffffffffffffffff021916908373ffffffffffffffffffffffffffffffffffffffff160217905550808273ffffffffffffffffffffffffffffffffffffffff168473ffffffffffffffffffffffffffffffffffffffff167fddf252ad1be2c89b69c2b068fc378daa952ba7f163c4a11628f55a4df523b3ef60405160405180910390a46124b18383836001612e50565b505050565b60006002600083815260200190815260200160002060009054906101000a900473ffffffffffffffffffffffffffffffffffffffff169050919050565b8173ffffffffffffffffffffffffffffffffffffffff168373ffffffffffffffffffffffffffffffffffffffff1603612561576040517f08c379a000000000000000000000000000000000000000000000000000000000815260040161255890614d2c565b60405180910390fd5b80600560008573ffffffffffffffffffffffffffffffffffffffff1673ffffffffffffffffffffffffffffffffffffffff16815260200190815260200160002060008473ffffffffffffffffffffffffffffffffffffffff1673ffffffffffffffffffffffffffffffffffffffff16815260200190815260200160002060006101000a81548160ff0219169083151502179055508173ffffffffffffffffffffffffffffffffffffffff168373ffffffffffffffffffffffffffffffffffffffff167f17307eab39ab6107e8899845ad3d59bd9653f200f220920489ca2b5937696c318360405161265291906134e4565b60405180910390a3505050565b61266a8484846121bd565b61267684848484612e56565b6126b5576040517f08c379a00000000000000000000000000000000000000000000000000000000081526004016126ac90614dbe565b60405180910390fd5b50505050565b6060600060016126ca84612fdd565b01905060008167ffffffffffffffff8111156126e9576126e86139c4565b5b6040519080825280601f01601f19166020018201604052801561271b5781602001600182028036833780820191505090505b509050600082602001820190505b60011561277e578080600190039150507f3031323334353637383961626364656600000000000000000000000000000000600a86061a8153600a858161277257612771614dde565b5b04945060008503612729575b819350505050919050565b6060600082519050600081036127b1576040518060200160405280600081525091505061291b565b600060036002836127c2919061484a565b6127cc9190614e0d565b60046127d89190614e3e565b905060006020826127e9919061484a565b67ffffffffffffffff811115612802576128016139c4565b5b6040519080825280601f01601f1916602001820160405280156128345781602001600182028036833780820191505090505b50905060006040518060600160405280604081526020016152e2604091399050600181016020830160005b868110156128d85760038101905062ffffff818a015116603f8160121c168401518060081b905060ff603f83600c1c1686015116810190508060081b905060ff603f8360061c1686015116810190508060081b905060ff603f831686015116810190508060e01b9050808452600484019350505061285f565b5060038606600181146128f257600281146129025761290d565b613d3d60f01b600283035261290d565b603d60f81b60018303525b508484525050819450505050505b919050565b6129bc8484848460405160240161293a9493929190614e80565b6040516020818303038152906040527ff45d7d2c000000000000000000000000000000000000000000000000000000007bffffffffffffffffffffffffffffffffffffffffffffffffffffffff19166020820180517bffffffffffffffffffffffffffffffffffffffffffffffffffffffff8381831617835250505050612cc0565b50505050565b6000601060008154809291906129d790614ed3565b91905055508142336010546040516020016129f493929190614f84565b6040516020818303038152906040528051906020012060001c612a179190614fc1565b9050919050565b612ab8838383604051602401612a3693929190614ff2565b6040516020818303038152906040527f5821efa1000000000000000000000000000000000000000000000000000000007bffffffffffffffffffffffffffffffffffffffffffffffffffffffff19166020820180517bffffffffffffffffffffffffffffffffffffffffffffffffffffffff8381831617835250505050612cc0565b505050565b612b558282604051602401612ad3929190615037565b6040516020818303038152906040527f4b5c4277000000000000000000000000000000000000000000000000000000007bffffffffffffffffffffffffffffffffffffffffffffffffffffffff19166020820180517bffffffffffffffffffffffffffffffffffffffffffffffffffffffff8381831617835250505050612cc0565b5050565b612bf18282604051602401612b6f92919061506e565b6040516020818303038152906040527fb60e72cc000000000000000000000000000000000000000000000000000000007bffffffffffffffffffffffffffffffffffffffffffffffffffffffff19166020820180517bffffffffffffffffffffffffffffffffffffffffffffffffffffffff8381831617835250505050612cc0565b5050565b600081600001549050919050565b612c1d828260405180602001604052806000815250613130565b5050565b612cbb838383604051602401612c399392919061509e565b6040516020818303038152906040527fca47c4eb000000000000000000000000000000000000000000000000000000007bffffffffffffffffffffffffffffffffffffffffffffffffffffffff19166020820180517bffffffffffffffffffffffffffffffffffffffffffffffffffffffff8381831617835250505050612cc0565b505050565b60008151905060006a636f6e736f6c652e6c6f679050602083016000808483855afa5050505050565b60008073ffffffffffffffffffffffffffffffffffffffff16612d0b836124b6565b73ffffffffffffffffffffffffffffffffffffffff1614159050919050565b6001811115612e4a57600073ffffffffffffffffffffffffffffffffffffffff168473ffffffffffffffffffffffffffffffffffffffff1614612dbe5780600360008673ffffffffffffffffffffffffffffffffffffffff1673ffffffffffffffffffffffffffffffffffffffff1681526020019081526020016000206000828254612db69190613fbd565b925050819055505b600073ffffffffffffffffffffffffffffffffffffffff168373ffffffffffffffffffffffffffffffffffffffff1614612e495780600360008573ffffffffffffffffffffffffffffffffffffffff1673ffffffffffffffffffffffffffffffffffffffff1681526020019081526020016000206000828254612e41919061484a565b925050819055505b5b50505050565b50505050565b6000612e778473ffffffffffffffffffffffffffffffffffffffff1661318b565b15612fd0578373ffffffffffffffffffffffffffffffffffffffff1663150b7a02612ea0612067565b8786866040518563ffffffff1660e01b8152600401612ec29493929190615131565b6020604051808303816000875af1925050508015612efe57506040513d601f19601f82011682018060405250810190612efb9190615192565b60015b612f80573d8060008114612f2e576040519150601f19603f3d011682016040523d82523d6000602084013e612f33565b606091505b506000815103612f78576040517f08c379a0000000000000000000000000000000000000000000000000000000008152600401612f6f90614dbe565b60405180910390fd5b805181602001fd5b63150b7a0260e01b7bffffffffffffffffffffffffffffffffffffffffffffffffffffffff1916817bffffffffffffffffffffffffffffffffffffffffffffffffffffffff191614915050612fd5565b600190505b949350505050565b600080600090507a184f03e93ff9f4daa797ed6e38ed64bf6a1f010000000000000000831061303b577a184f03e93ff9f4daa797ed6e38ed64bf6a1f010000000000000000838161303157613030614dde565b5b0492506040810190505b6d04ee2d6d415b85acef81000000008310613078576d04ee2d6d415b85acef8100000000838161306e5761306d614dde565b5b0492506020810190505b662386f26fc1000083106130a757662386f26fc10000838161309d5761309c614dde565b5b0492506010810190505b6305f5e10083106130d0576305f5e10083816130c6576130c5614dde565b5b0492506008810190505b61271083106130f55761271083816130eb576130ea614dde565b5b0492506004810190505b60648310613118576064838161310e5761310d614dde565b5b0492506002810190505b600a8310613127576001810190505b80915050919050565b61313a83836131ae565b6131476000848484612e56565b613186576040517f08c379a000000000000000000000000000000000000000000000000000000000815260040161317d90614dbe565b60405180910390fd5b505050565b6000808273ffffffffffffffffffffffffffffffffffffffff163b119050919050565b600073ffffffffffffffffffffffffffffffffffffffff168273ffffffffffffffffffffffffffffffffffffffff160361321d576040517f08c379a00000000000000000000000000000000000000000000000000000000081526004016132149061520b565b60405180910390fd5b61322681612ce9565b15613266576040517f08c379a000000000000000000000000000000000000000000000000000000000815260040161325d90615277565b60405180910390fd5b613274600083836001612d2a565b61327d81612ce9565b156132bd576040517f08c379a00000000000000000000000000000000000000000000000000000000081526004016132b490615277565b60405180910390fd5b6001600360008473ffffffffffffffffffffffffffffffffffffffff1673ffffffffffffffffffffffffffffffffffffffff16815260200190815260200160002060008282540192505081905550816002600083815260200190815260200160002060006101000a81548173ffffffffffffffffffffffffffffffffffffffff021916908373ffffffffffffffffffffffffffffffffffffffff160217905550808273ffffffffffffffffffffffffffffffffffffffff16600073ffffffffffffffffffffffffffffffffffffffff167fddf252ad1be2c89b69c2b068fc378daa952ba7f163c4a11628f55a4df523b3ef60405160405180910390a46133c7600083836001612e50565b5050565b6040518060a0016040528060608152602001606081526020016000815260200160008152602001600081525090565b6040518060c001604052806000815260200160608152602001606081526020016000815260200160008152602001600081525090565b6000604051905090565b600080fd5b600080fd5b60007fffffffff0000000000000000000000000000000000000000000000000000000082169050919050565b61347981613444565b811461348457600080fd5b50565b60008135905061349681613470565b92915050565b6000602082840312156134b2576134b161343a565b5b60006134c084828501613487565b91505092915050565b60008115159050919050565b6134de816134c9565b82525050565b60006020820190506134f960008301846134d5565b92915050565b600081519050919050565b600082825260208201905092915050565b60005b8381101561353957808201518184015260208101905061351e565b60008484015250505050565b6000601f19601f8301169050919050565b6000613561826134ff565b61356b818561350a565b935061357b81856020860161351b565b61358481613545565b840191505092915050565b6000819050919050565b6135a28161358f565b82525050565b600060a08301600083015184820360008601526135c58282613556565b915050602083015184820360208601526135df8282613556565b91505060408301516135f46040860182613599565b5060608301516136076060860182613599565b50608083015161361a6080860182613599565b508091505092915050565b6000602082019050818103600083015261363f81846135a8565b905092915050565b600082825260208201905092915050565b6000613663826134ff565b61366d8185613647565b935061367d81856020860161351b565b61368681613545565b840191505092915050565b600060208201905081810360008301526136ab8184613658565b905092915050565b6136bc8161358f565b81146136c757600080fd5b50565b6000813590506136d9816136b3565b92915050565b6000602082840312156136f5576136f461343a565b5b6000613703848285016136ca565b91505092915050565b600073ffffffffffffffffffffffffffffffffffffffff82169050919050565b60006137378261370c565b9050919050565b6137478161372c565b82525050565b6000602082019050613762600083018461373e565b92915050565b6137718161372c565b811461377c57600080fd5b50565b60008135905061378e81613768565b92915050565b600080604083850312156137ab576137aa61343a565b5b60006137b98582860161377f565b92505060206137ca858286016136ca565b9150509250929050565b6000806000606084860312156137ed576137ec61343a565b5b60006137fb8682870161377f565b935050602061380c8682870161377f565b925050604061381d868287016136ca565b9150509250925092565b60006020828403121561383d5761383c61343a565b5b600061384b8482850161377f565b91505092915050565b61385d8161358f565b82525050565b60006020820190506138786000830184613854565b92915050565b600060c0820190506138936000830189613854565b81810360208301526138a58188613658565b905081810360408301526138b98187613658565b90506138c86060830186613854565b6138d56080830185613854565b6138e260a0830184613854565b979650505050505050565b6138f6816134c9565b811461390157600080fd5b50565b600081359050613913816138ed565b92915050565b600080604083850312156139305761392f61343a565b5b600061393e8582860161377f565b925050602061394f85828601613904565b9150509250929050565b600060a08201905081810360008301526139738188613658565b905081810360208301526139878187613658565b90506139966040830186613854565b6139a36060830185613854565b6139b06080830184613854565b9695505050505050565b600080fd5b600080fd5b7f4e487b7100000000000000000000000000000000000000000000000000000000600052604160045260246000fd5b6139fc82613545565b810181811067ffffffffffffffff82111715613a1b57613a1a6139c4565b5b80604052505050565b6000613a2e613430565b9050613a3a82826139f3565b919050565b600067ffffffffffffffff821115613a5a57613a596139c4565b5b613a6382613545565b9050602081019050919050565b82818337600083830152505050565b6000613a92613a8d84613a3f565b613a24565b905082815260208101848484011115613aae57613aad6139bf565b5b613ab9848285613a70565b509392505050565b600082601f830112613ad657613ad56139ba565b5b8135613ae6848260208601613a7f565b91505092915050565b60008060008060808587031215613b0957613b0861343a565b5b6000613b178782880161377f565b9450506020613b288782880161377f565b9350506040613b39878288016136ca565b925050606085013567ffffffffffffffff811115613b5a57613b5961343f565b5b613b6687828801613ac1565b91505092959194509250565b600081519050919050565b600082825260208201905092915050565b6000819050602082019050919050565b600060c083016000830151613bb66000860182613599565b5060208301518482036020860152613bce8282613556565b91505060408301518482036040860152613be88282613556565b9150506060830151613bfd6060860182613599565b506080830151613c106080860182613599565b5060a0830151613c2360a0860182613599565b508091505092915050565b6000613c3a8383613b9e565b905092915050565b6000602082019050919050565b6000613c5a82613b72565b613c648185613b7d565b935083602082028501613c7685613b8e565b8060005b85811015613cb25784840389528151613c938582613c2e565b9450613c9e83613c42565b925060208a01995050600181019050613c7a565b50829750879550505050505092915050565b60006020820190508181036000830152613cde8184613c4f565b905092915050565b600060c083016000830151613cfe6000860182613599565b5060208301518482036020860152613d168282613556565b91505060408301518482036040860152613d308282613556565b9150506060830151613d456060860182613599565b506080830151613d586080860182613599565b5060a0830151613d6b60a0860182613599565b508091505092915050565b60006020820190508181036000830152613d908184613ce6565b905092915050565b60008060408385031215613daf57613dae61343a565b5b6000613dbd8582860161377f565b9250506020613dce8582860161377f565b9150509250929050565b7f596f75206d757374206f776e2074686973204e465420746f206865616c20746860008201527f6520636861726163746572210000000000000000000000000000000000000000602082015250565b6000613e34602c83613647565b9150613e3f82613dd8565b604082019050919050565b60006020820190508181036000830152613e6381613e27565b9050919050565b7f596f75722063686172616374657220616c7265616479206861732066756c6c2060008201527f4850210000000000000000000000000000000000000000000000000000000000602082015250565b6000613ec6602383613647565b9150613ed182613e6a565b604082019050919050565b60006020820190508181036000830152613ef581613eb9565b9050919050565b7f4e6f7420656e6f75676820706f696e747320746f206865616c2e20417474616360008201527f6b206174206c6561737420332074696d65732066697273742e00000000000000602082015250565b6000613f58603983613647565b9150613f6382613efc565b604082019050919050565b60006020820190508181036000830152613f8781613f4b565b9050919050565b7f4e487b7100000000000000000000000000000000000000000000000000000000600052601160045260246000fd5b6000613fc88261358f565b9150613fd38361358f565b9250828203905081811115613feb57613fea613f8e565b5b92915050565b7f4e487b7100000000000000000000000000000000000000000000000000000000600052602260045260246000fd5b6000600282049050600182168061403857607f821691505b60208210810361404b5761404a613ff1565b5b50919050565b7f4552433732313a20617070726f76616c20746f2063757272656e74206f776e6560008201527f7200000000000000000000000000000000000000000000000000000000000000602082015250565b60006140ad602183613647565b91506140b882614051565b604082019050919050565b600060208201905081810360008301526140dc816140a0565b9050919050565b7f4552433732313a20617070726f76652063616c6c6572206973206e6f7420746f60008201527f6b656e206f776e6572206f7220617070726f76656420666f7220616c6c000000602082015250565b600061413f603d83613647565b915061414a826140e3565b604082019050919050565b6000602082019050818103600083015261416e81614132565b9050919050565b7f4552433732313a2063616c6c6572206973206e6f7420746f6b656e206f776e6560008201527f72206f7220617070726f76656400000000000000000000000000000000000000602082015250565b60006141d1602d83613647565b91506141dc82614175565b604082019050919050565b60006020820190508181036000830152614200816141c4565b9050919050565b7f4552433732313a20696e76616c696420746f6b656e2049440000000000000000600082015250565b600061423d601883613647565b915061424882614207565b602082019050919050565b6000602082019050818103600083015261426c81614230565b9050919050565b7f4552433732313a2061646472657373207a65726f206973206e6f74206120766160008201527f6c6964206f776e65720000000000000000000000000000000000000000000000602082015250565b60006142cf602983613647565b91506142da82614273565b604082019050919050565b600060208201905081810360008301526142fe816142c2565b9050919050565b600081905092915050565b7f7b226e616d65223a202200000000000000000000000000000000000000000000600082015250565b6000614346600a83614305565b915061435182614310565b600a82019050919050565b6000614367826134ff565b6143718185614305565b935061438181856020860161351b565b80840191505092915050565b7f202d204275666669636f726e2023000000000000000000000000000000000000600082015250565b60006143c3600e83614305565b91506143ce8261438d565b600e82019050919050565b7f222c20226465736372697074696f6e223a20225468697320697320616e204e4660008201527f542074686174206c6574732070656f706c6520706c617920696e20746865206760208201527f616d65204275666669636f726e20426174746c6520627920416476336e74757260408201527f652e78797a2e222c2022696d616765223a2022697066733a2f2f000000000000606082015250565b6000614481607a83614305565b915061448c826143d9565b607a82019050919050565b7f222c202261747472696275746573223a205b207b202274726169745f7479706560008201527f223a20224865616c746820506f696e7473222c202276616c7565223a20000000602082015250565b60006144f3603d83614305565b91506144fe82614497565b603d82019050919050565b7f2c20226d61785f76616c7565223a000000000000000000000000000000000000600082015250565b600061453f600e83614305565b915061454a82614509565b600e82019050919050565b7f7d2c207b202274726169745f74797065223a202241747461636b2044616d616760008201527f65222c202276616c7565223a2000000000000000000000000000000000000000602082015250565b60006145b1602d83614305565b91506145bc82614555565b602d82019050919050565b7f7d205d7d00000000000000000000000000000000000000000000000000000000600082015250565b60006145fd600483614305565b9150614608826145c7565b600482019050919050565b600061461e82614339565b915061462a828961435c565b9150614635826143b6565b9150614641828861435c565b915061464c82614474565b9150614658828761435c565b9150614663826144e6565b915061466f828661435c565b915061467a82614532565b9150614686828561435c565b9150614691826145a4565b915061469d828461435c565b91506146a8826145f0565b9150819050979650505050505050565b7f646174613a6170706c69636174696f6e2f6a736f6e3b6261736536342c000000600082015250565b60006146ee601d83614305565b91506146f9826146b8565b601d82019050919050565b600061470f826146e1565b915061471b828461435c565b915081905092915050565b7f4572726f723a20636861726163746572206d757374206861766520485020746f60008201527f2061747461636b20626f73732e00000000000000000000000000000000000000602082015250565b6000614782602d83613647565b915061478d82614726565b604082019050919050565b600060208201905081810360008301526147b181614775565b9050919050565b7f4572726f723a20626f7373206d757374206861766520485020746f206174746160008201527f636b206368617261637465722e00000000000000000000000000000000000000602082015250565b6000614814602d83613647565b915061481f826147b8565b604082019050919050565b6000602082019050818103600083015261484381614807565b9050919050565b60006148558261358f565b91506148608361358f565b925082820190508082111561487857614877613f8e565b5b92915050565b6000606082019050614893600083018661373e565b6148a06020830185613854565b6148ad6040830184613854565b949350505050565b7f4e487b7100000000000000000000000000000000000000000000000000000000600052603260045260246000fd5b60008190508160005260206000209050919050565b60006020601f8301049050919050565b600082821b905092915050565b6000600883026149467fffffffffffffffffffffffffffffffffffffffffffffffffffffffffffffffff82614909565b6149508683614909565b95508019841693508086168417925050509392505050565b6000819050919050565b600061498d6149886149838461358f565b614968565b61358f565b9050919050565b6000819050919050565b6149a783614972565b6149bb6149b382614994565b848454614916565b825550505050565b600090565b6149d06149c3565b6149db81848461499e565b505050565b5b818110156149ff576149f46000826149c8565b6001810190506149e1565b5050565b601f821115614a4457614a15816148e4565b614a1e846148f9565b81016020851015614a2d578190505b614a41614a39856148f9565b8301826149e0565b50505b505050565b600082821c905092915050565b6000614a6760001984600802614a49565b1980831691505092915050565b6000614a808383614a56565b9150826002028217905092915050565b614a99826134ff565b67ffffffffffffffff811115614ab257614ab16139c4565b5b614abc8254614020565b614ac7828285614a03565b600060209050601f831160018114614afa5760008415614ae8578287015190505b614af28582614a74565b865550614b5a565b601f198416614b08866148e4565b60005b82811015614b3057848901518255600182019150602085019450602081019050614b0b565b86831015614b4d5784890151614b49601f891682614a56565b8355505b6001600288020188555050505b505050505050565b60006080820190508181036000830152614b7c8187613658565b90508181036020830152614b908186613658565b9050614b9f6040830185613854565b8181036060830152614bb18184613658565b905095945050505050565b7f4552433732313a207472616e736665722066726f6d20696e636f72726563742060008201527f6f776e6572000000000000000000000000000000000000000000000000000000602082015250565b6000614c18602583613647565b9150614c2382614bbc565b604082019050919050565b60006020820190508181036000830152614c4781614c0b565b9050919050565b7f4552433732313a207472616e7366657220746f20746865207a65726f2061646460008201527f7265737300000000000000000000000000000000000000000000000000000000602082015250565b6000614caa602483613647565b9150614cb582614c4e565b604082019050919050565b60006020820190508181036000830152614cd981614c9d565b9050919050565b7f4552433732313a20617070726f766520746f2063616c6c657200000000000000600082015250565b6000614d16601983613647565b9150614d2182614ce0565b602082019050919050565b60006020820190508181036000830152614d4581614d09565b9050919050565b7f4552433732313a207472616e7366657220746f206e6f6e20455243373231526560008201527f63656976657220696d706c656d656e7465720000000000000000000000000000602082015250565b6000614da8603283613647565b9150614db382614d4c565b604082019050919050565b60006020820190508181036000830152614dd781614d9b565b9050919050565b7f4e487b7100000000000000000000000000000000000000000000000000000000600052601260045260246000fd5b6000614e188261358f565b9150614e238361358f565b925082614e3357614e32614dde565b5b828204905092915050565b6000614e498261358f565b9150614e548361358f565b9250828202614e628161358f565b91508282048414831517614e7957614e78613f8e565b5b5092915050565b60006080820190508181036000830152614e9a8187613658565b90508181036020830152614eae8186613658565b9050614ebd6040830185613854565b614eca6060830184613854565b95945050505050565b6000614ede8261358f565b91507fffffffffffffffffffffffffffffffffffffffffffffffffffffffffffffffff8203614f1057614f0f613f8e565b5b600182019050919050565b6000819050919050565b614f36614f318261358f565b614f1b565b82525050565b60008160601b9050919050565b6000614f5482614f3c565b9050919050565b6000614f6682614f49565b9050919050565b614f7e614f798261372c565b614f5b565b82525050565b6000614f908286614f25565b602082019150614fa08285614f6d565b601482019150614fb08284614f25565b602082019150819050949350505050565b6000614fcc8261358f565b9150614fd78361358f565b925082614fe757614fe6614dde565b5b828206905092915050565b6000606082019050818103600083015261500c8186613658565b905081810360208301526150208185613658565b905061502f6040830184613854565b949350505050565b600060408201905081810360008301526150518185613658565b905081810360208301526150658184613658565b90509392505050565b600060408201905081810360008301526150888185613658565b90506150976020830184613854565b9392505050565b600060608201905081810360008301526150b88186613658565b90506150c76020830185613854565b6150d46040830184613854565b949350505050565b600081519050919050565b600082825260208201905092915050565b6000615103826150dc565b61510d81856150e7565b935061511d81856020860161351b565b61512681613545565b840191505092915050565b6000608082019050615146600083018761373e565b615153602083018661373e565b6151606040830185613854565b818103606083015261517281846150f8565b905095945050505050565b60008151905061518c81613470565b92915050565b6000602082840312156151a8576151a761343a565b5b60006151b68482850161517d565b91505092915050565b7f4552433732313a206d696e7420746f20746865207a65726f2061646472657373600082015250565b60006151f5602083613647565b9150615200826151bf565b602082019050919050565b60006020820190508181036000830152615224816151e8565b9050919050565b7f4552433732313a20746f6b656e20616c7265616479206d696e74656400000000600082015250565b6000615261601c83613647565b915061526c8261522b565b602082019050919050565b6000602082019050818103600083015261529081615254565b905091905056fe25732061747461636b656420706c617965722e204e657720706c617965722068703a202573506c617965722061747461636b656420626f73732e204e657720626f73732068703a2025734142434445464748494a4b4c4d4e4f505152535455565758595a6162636465666768696a6b6c6d6e6f707172737475767778797a303132333435363738392b2f426f73732061747461636b656420706c617965722e204e657720706c617965722068703a2025730a4d696e746564204e465420772f20746f6b656e496420257320616e6420636861726163746572496e6465782025730a506c6179657220772f206368617261637465722025732061626f757420746f2061747461636b2e2048617320257320485020616e64202573204144a264697066735822122022e1b5f71e0edb659cad173669524f00147e1724fccf1834753541e0eb82fb2b64736f6c63430008110033446f6e6520696e697469616c697a696e6720257320772f2048502025732c20696d67202573446f6e6520696e697469616c697a696e6720626f737320257320772f2048502025732c20696d67202573",
  "linkReferences": {},
  "deployedLinkReferences": {}
}