{
  "_format": "hh-sol-artifact-1",
  "contractName": "ScrollGuardians",
  "sourceName": "contracts/ScrollGuardians.sol",
  "abi": [
    {
      "inputs": [
        {
          "internalType": "string[]",
          "name": "characterNames",
          "type": "string[]"
        },
        {
          "internalType": "string[]",
          "name": "characterImageURIs",
          "type": "string[]"
        },
        {
          "internalType": "uint256[]",
          "name": "characterHp",
          "type": "uint256[]"
        },
        {
          "internalType": "uint256[]",
          "name": "characterAttackDmg",
          "type": "uint256[]"
        },
        {
          "internalType": "string",
          "name": "bossName",
          "type": "string"
        },
        {
          "internalType": "string",
          "name": "bossImageURI",
          "type": "string"
        },
        {
          "internalType": "uint256",
          "name": "bossHp",
          "type": "uint256"
        },
        {
          "internalType": "uint256",
          "name": "bossAttackDamage",
          "type": "uint256"
        }
      ],
      "stateMutability": "nonpayable",
      "type": "constructor"
    },
    {
      "anonymous": false,
      "inputs": [
        {
          "indexed": true,
          "internalType": "address",
          "name": "owner",
          "type": "address"
        },
        {
          "indexed": true,
          "internalType": "address",
          "name": "approved",
          "type": "address"
        },
        {
          "indexed": true,
          "internalType": "uint256",
          "name": "tokenId",
          "type": "uint256"
        }
      ],
      "name": "Approval",
      "type": "event"
    },
    {
      "anonymous": false,
      "inputs": [
        {
          "indexed": true,
          "internalType": "address",
          "name": "owner",
          "type": "address"
        },
        {
          "indexed": true,
          "internalType": "address",
          "name": "operator",
          "type": "address"
        },
        {
          "indexed": false,
          "internalType": "bool",
          "name": "approved",
          "type": "bool"
        }
      ],
      "name": "ApprovalForAll",
      "type": "event"
    },
    {
      "anonymous": false,
      "inputs": [
        {
          "indexed": false,
          "internalType": "address",
          "name": "sender",
          "type": "address"
        },
        {
          "indexed": false,
          "internalType": "uint256",
          "name": "newBossHp",
          "type": "uint256"
        },
        {
          "indexed": false,
          "internalType": "uint256",
          "name": "newPlayerHp",
          "type": "uint256"
        }
      ],
      "name": "AttackComplete",
      "type": "event"
    },
    {
      "anonymous": false,
      "inputs": [
        {
          "indexed": false,
          "internalType": "address",
          "name": "sender",
          "type": "address"
        },
        {
          "indexed": false,
          "internalType": "uint256",
          "name": "tokenId",
          "type": "uint256"
        },
        {
          "indexed": false,
          "internalType": "uint256",
          "name": "characterIndex",
          "type": "uint256"
        }
      ],
      "name": "CharacterNFTMinted",
      "type": "event"
    },
    {
      "anonymous": false,
      "inputs": [
        {
          "indexed": true,
          "internalType": "address",
          "name": "from",
          "type": "address"
        },
        {
          "indexed": true,
          "internalType": "address",
          "name": "to",
          "type": "address"
        },
        {
          "indexed": true,
          "internalType": "uint256",
          "name": "tokenId",
          "type": "uint256"
        }
      ],
      "name": "Transfer",
      "type": "event"
    },
    {
      "inputs": [
        {
          "internalType": "address",
          "name": "to",
          "type": "address"
        },
        {
          "internalType": "uint256",
          "name": "tokenId",
          "type": "uint256"
        }
      ],
      "name": "approve",
      "outputs": [],
      "stateMutability": "nonpayable",
      "type": "function"
    },
    {
      "inputs": [],
      "name": "attackBoss",
      "outputs": [],
      "stateMutability": "nonpayable",
      "type": "function"
    },
    {
      "inputs": [
        {
          "internalType": "address",
          "name": "owner",
          "type": "address"
        }
      ],
      "name": "balanceOf",
      "outputs": [
        {
          "internalType": "uint256",
          "name": "",
          "type": "uint256"
        }
      ],
      "stateMutability": "view",
      "type": "function"
    },
    {
      "inputs": [],
      "name": "bigBoss",
      "outputs": [
        {
          "internalType": "string",
          "name": "name",
          "type": "string"
        },
        {
          "internalType": "string",
          "name": "imageURI",
          "type": "string"
        },
        {
          "internalType": "uint256",
          "name": "hp",
          "type": "uint256"
        },
        {
          "internalType": "uint256",
          "name": "maxHp",
          "type": "uint256"
        },
        {
          "internalType": "uint256",
          "name": "attackDamage",
          "type": "uint256"
        }
      ],
      "stateMutability": "view",
      "type": "function"
    },
    {
      "inputs": [],
      "name": "checkIfUserHasNFT",
      "outputs": [
        {
          "components": [
            {
              "internalType": "uint256",
              "name": "characterIndex",
              "type": "uint256"
            },
            {
              "internalType": "string",
              "name": "name",
              "type": "string"
            },
            {
              "internalType": "string",
              "name": "imageURI",
              "type": "string"
            },
            {
              "internalType": "uint256",
              "name": "hp",
              "type": "uint256"
            },
            {
              "internalType": "uint256",
              "name": "maxHp",
              "type": "uint256"
            },
            {
              "internalType": "uint256",
              "name": "attackDamage",
              "type": "uint256"
            }
          ],
          "internalType": "struct ScrollGuardians.CharacterAttributes",
          "name": "",
          "type": "tuple"
        }
      ],
      "stateMutability": "view",
      "type": "function"
    },
    {
      "inputs": [],
      "name": "getAllDefaultCharacters",
      "outputs": [
        {
          "components": [
            {
              "internalType": "uint256",
              "name": "characterIndex",
              "type": "uint256"
            },
            {
              "internalType": "string",
              "name": "name",
              "type": "string"
            },
            {
              "internalType": "string",
              "name": "imageURI",
              "type": "string"
            },
            {
              "internalType": "uint256",
              "name": "hp",
              "type": "uint256"
            },
            {
              "internalType": "uint256",
              "name": "maxHp",
              "type": "uint256"
            },
            {
              "internalType": "uint256",
              "name": "attackDamage",
              "type": "uint256"
            }
          ],
          "internalType": "struct ScrollGuardians.CharacterAttributes[]",
          "name": "",
          "type": "tuple[]"
        }
      ],
      "stateMutability": "view",
      "type": "function"
    },
    {
      "inputs": [
        {
          "internalType": "uint256",
          "name": "tokenId",
          "type": "uint256"
        }
      ],
      "name": "getApproved",
      "outputs": [
        {
          "internalType": "address",
          "name": "",
          "type": "address"
        }
      ],
      "stateMutability": "view",
      "type": "function"
    },
    {
      "inputs": [],
      "name": "getBigBoss",
      "outputs": [
        {
          "components": [
            {
              "internalType": "string",
              "name": "name",
              "type": "string"
            },
            {
              "internalType": "string",
              "name": "imageURI",
              "type": "string"
            },
            {
              "internalType": "uint256",
              "name": "hp",
              "type": "uint256"
            },
            {
              "internalType": "uint256",
              "name": "maxHp",
              "type": "uint256"
            },
            {
              "internalType": "uint256",
              "name": "attackDamage",
              "type": "uint256"
            }
          ],
          "internalType": "struct ScrollGuardians.BigBoss",
          "name": "",
          "type": "tuple"
        }
      ],
      "stateMutability": "view",
      "type": "function"
    },
    {
      "inputs": [],
      "name": "heal",
      "outputs": [],
      "stateMutability": "nonpayable",
      "type": "function"
    },
    {
      "inputs": [
        {
          "internalType": "address",
          "name": "owner",
          "type": "address"
        },
        {
          "internalType": "address",
          "name": "operator",
          "type": "address"
        }
      ],
      "name": "isApprovedForAll",
      "outputs": [
        {
          "internalType": "bool",
          "name": "",
          "type": "bool"
        }
      ],
      "stateMutability": "view",
      "type": "function"
    },
    {
      "inputs": [
        {
          "internalType": "uint256",
          "name": "_characterIndex",
          "type": "uint256"
        }
      ],
      "name": "mintCharacterNFT",
      "outputs": [],
      "stateMutability": "nonpayable",
      "type": "function"
    },
    {
      "inputs": [],
      "name": "name",
      "outputs": [
        {
          "internalType": "string",
          "name": "",
          "type": "string"
        }
      ],
      "stateMutability": "view",
      "type": "function"
    },
    {
      "inputs": [
        {
          "internalType": "uint256",
          "name": "",
          "type": "uint256"
        }
      ],
      "name": "nftHolderAttributes",
      "outputs": [
        {
          "internalType": "uint256",
          "name": "characterIndex",
          "type": "uint256"
        },
        {
          "internalType": "string",
          "name": "name",
          "type": "string"
        },
        {
          "internalType": "string",
          "name": "imageURI",
          "type": "string"
        },
        {
          "internalType": "uint256",
          "name": "hp",
          "type": "uint256"
        },
        {
          "internalType": "uint256",
          "name": "maxHp",
          "type": "uint256"
        },
        {
          "internalType": "uint256",
          "name": "attackDamage",
          "type": "uint256"
        }
      ],
      "stateMutability": "view",
      "type": "function"
    },
    {
      "inputs": [
        {
          "internalType": "address",
          "name": "",
          "type": "address"
        }
      ],
      "name": "nftHolders",
      "outputs": [
        {
          "internalType": "uint256",
          "name": "",
          "type": "uint256"
        }
      ],
      "stateMutability": "view",
      "type": "function"
    },
    {
      "inputs": [
        {
          "internalType": "uint256",
          "name": "tokenId",
          "type": "uint256"
        }
      ],
      "name": "ownerOf",
      "outputs": [
        {
          "internalType": "address",
          "name": "",
          "type": "address"
        }
      ],
      "stateMutability": "view",
      "type": "function"
    },
    {
      "inputs": [
        {
          "internalType": "address",
          "name": "",
          "type": "address"
        }
      ],
      "name": "pointsBalance",
      "outputs": [
        {
          "internalType": "uint256",
          "name": "",
          "type": "uint256"
        }
      ],
      "stateMutability": "view",
      "type": "function"
    },
    {
      "inputs": [
        {
          "internalType": "address",
          "name": "from",
          "type": "address"
        },
        {
          "internalType": "address",
          "name": "to",
          "type": "address"
        },
        {
          "internalType": "uint256",
          "name": "tokenId",
          "type": "uint256"
        }
      ],
      "name": "safeTransferFrom",
      "outputs": [],
      "stateMutability": "nonpayable",
      "type": "function"
    },
    {
      "inputs": [
        {
          "internalType": "address",
          "name": "from",
          "type": "address"
        },
        {
          "internalType": "address",
          "name": "to",
          "type": "address"
        },
        {
          "internalType": "uint256",
          "name": "tokenId",
          "type": "uint256"
        },
        {
          "internalType": "bytes",
          "name": "data",
          "type": "bytes"
        }
      ],
      "name": "safeTransferFrom",
      "outputs": [],
      "stateMutability": "nonpayable",
      "type": "function"
    },
    {
      "inputs": [
        {
          "internalType": "address",
          "name": "operator",
          "type": "address"
        },
        {
          "internalType": "bool",
          "name": "approved",
          "type": "bool"
        }
      ],
      "name": "setApprovalForAll",
      "outputs": [],
      "stateMutability": "nonpayable",
      "type": "function"
    },
    {
      "inputs": [
        {
          "internalType": "bytes4",
          "name": "interfaceId",
          "type": "bytes4"
        }
      ],
      "name": "supportsInterface",
      "outputs": [
        {
          "internalType": "bool",
          "name": "",
          "type": "bool"
        }
      ],
      "stateMutability": "view",
      "type": "function"
    },
    {
      "inputs": [],
      "name": "symbol",
      "outputs": [
        {
          "internalType": "string",
          "name": "",
          "type": "string"
        }
      ],
      "stateMutability": "view",
      "type": "function"
    },
    {
      "inputs": [
        {
          "internalType": "uint256",
          "name": "_tokenId",
          "type": "uint256"
        }
      ],
      "name": "tokenURI",
      "outputs": [
        {
          "internalType": "string",
          "name": "",
          "type": "string"
        }
      ],
      "stateMutability": "view",
      "type": "function"
    },
    {
      "inputs": [
        {
          "internalType": "address",
          "name": "from",
          "type": "address"
        },
        {
          "internalType": "address",
          "name": "to",
          "type": "address"
        },
        {
          "internalType": "uint256",
          "name": "tokenId",
          "type": "uint256"
        }
      ],
      "name": "transferFrom",
      "outputs": [],
      "stateMutability": "nonpayable",
      "type": "function"
    }
  ],
  "bytecode": "0x608060405260006010553480156200001657600080fd5b50604051620066ef380380620066ef83398181016040528101906200003c919062000a90565b6040518060400160405280601081526020017f5363726f6c6c20477561726469616e73000000000000000000000000000000008152506040518060400160405280600f81526020017f5343524f4c4c20475541524449414e00000000000000000000000000000000008152508160009081620000b9919062000e54565b508060019081620000cb919062000e54565b5050506040518060a0016040528085815260200184815260200183815260200183815260200182815250600b60008201518160000190816200010e919062000e54565b50602082015181600101908162000126919062000e54565b50604082015181600201556060820151816003015560808201518160040155905050620002a96040518060600160405280602a8152602001620066c5602a9139600b6000018054620001789062000c4d565b80601f0160208091040260200160405190810160405280929190818152602001828054620001a69062000c4d565b8015620001f75780601f10620001cb57610100808354040283529160200191620001f7565b820191906000526020600020905b815481529060010190602001808311620001d957829003601f168201915b5050505050600b60020154600b6001018054620002149062000c4d565b80601f0160208091040260200160405190810160405280929190818152602001828054620002429062000c4d565b8015620002935780601f10620002675761010080835404028352916020019162000293565b820191906000526020600020905b8154815290600101906020018083116200027557829003601f168201915b50505050506200060560201b620020d21760201c565b60005b8851811015620005df5760076040518060c001604052808381526020018b8481518110620002df57620002de62000f3b565b5b602002602001015181526020018a848151811062000302576200030162000f3b565b5b6020026020010151815260200189848151811062000325576200032462000f3b565b5b6020026020010151815260200189848151811062000348576200034762000f3b565b5b602002602001015181526020018884815181106200036b576200036a62000f3b565b5b60200260200101518152509080600181540180825580915050600190039060005260206000209060060201600090919091909150600082015181600001556020820151816001019081620003c0919062000e54565b506040820151816002019081620003d8919062000e54565b50606082015181600301556080820151816004015560a08201518160050155505060006007828154811062000412576200041162000f3b565b5b90600052602060002090600602016040518060c001604052908160008201548152602001600182018054620004479062000c4d565b80601f0160208091040260200160405190810160405280929190818152602001828054620004759062000c4d565b8015620004c65780601f106200049a57610100808354040283529160200191620004c6565b820191906000526020600020905b815481529060010190602001808311620004a857829003601f168201915b50505050508152602001600282018054620004e19062000c4d565b80601f01602080910402602001604051908101604052809291908181526020018280546200050f9062000c4d565b8015620005605780601f10620005345761010080835404028352916020019162000560565b820191906000526020600020905b8154815290600101906020018083116200054257829003601f168201915b5050505050815260200160038201548152602001600482015481526020016005820154815250509050620005c7604051806060016040528060258152602001620066a0602591398260200151836060015184604001516200060560201b620020d21760201c565b50600181620005d7919062000f99565b9050620002ac565b50620005f76006620006b160201b620021741760201c565b505050505050505062001099565b620006ab8484848460405160240162000622949392919062001037565b6040516020818303038152906040527f5d1a971a000000000000000000000000000000000000000000000000000000007bffffffffffffffffffffffffffffffffffffffffffffffffffffffff19166020820180517bffffffffffffffffffffffffffffffffffffffffffffffffffffffff8381831617835250505050620006c760201b60201c565b50505050565b6001816000016000828254019250508190555050565b60008151905060006a636f6e736f6c652e6c6f679050602083016000808483855afa5050505050565b6000604051905090565b600080fd5b600080fd5b600080fd5b6000601f19601f8301169050919050565b7f4e487b7100000000000000000000000000000000000000000000000000000000600052604160045260246000fd5b620007548262000709565b810181811067ffffffffffffffff821117156200077657620007756200071a565b5b80604052505050565b60006200078b620006f0565b905062000799828262000749565b919050565b600067ffffffffffffffff821115620007bc57620007bb6200071a565b5b602082029050602081019050919050565b600080fd5b600080fd5b600067ffffffffffffffff821115620007f557620007f46200071a565b5b620008008262000709565b9050602081019050919050565b60005b838110156200082d57808201518184015260208101905062000810565b60008484015250505050565b6000620008506200084a84620007d7565b6200077f565b9050828152602081018484840111156200086f576200086e620007d2565b5b6200087c8482856200080d565b509392505050565b600082601f8301126200089c576200089b62000704565b5b8151620008ae84826020860162000839565b91505092915050565b6000620008ce620008c8846200079e565b6200077f565b90508083825260208201905060208402830185811115620008f457620008f3620007cd565b5b835b818110156200094257805167ffffffffffffffff8111156200091d576200091c62000704565b5b8086016200092c898262000884565b85526020850194505050602081019050620008f6565b5050509392505050565b600082601f83011262000964576200096362000704565b5b815162000976848260208601620008b7565b91505092915050565b600067ffffffffffffffff8211156200099d576200099c6200071a565b5b602082029050602081019050919050565b6000819050919050565b620009c381620009ae565b8114620009cf57600080fd5b50565b600081519050620009e381620009b8565b92915050565b600062000a00620009fa846200097f565b6200077f565b9050808382526020820190506020840283018581111562000a265762000a25620007cd565b5b835b8181101562000a53578062000a3e8882620009d2565b84526020840193505060208101905062000a28565b5050509392505050565b600082601f83011262000a755762000a7462000704565b5b815162000a87848260208601620009e9565b91505092915050565b600080600080600080600080610100898b03121562000ab45762000ab3620006fa565b5b600089015167ffffffffffffffff81111562000ad55762000ad4620006ff565b5b62000ae38b828c016200094c565b985050602089015167ffffffffffffffff81111562000b075762000b06620006ff565b5b62000b158b828c016200094c565b975050604089015167ffffffffffffffff81111562000b395762000b38620006ff565b5b62000b478b828c0162000a5d565b965050606089015167ffffffffffffffff81111562000b6b5762000b6a620006ff565b5b62000b798b828c0162000a5d565b955050608089015167ffffffffffffffff81111562000b9d5762000b9c620006ff565b5b62000bab8b828c0162000884565b94505060a089015167ffffffffffffffff81111562000bcf5762000bce620006ff565b5b62000bdd8b828c0162000884565b93505060c062000bf08b828c01620009d2565b92505060e062000c038b828c01620009d2565b9150509295985092959890939650565b600081519050919050565b7f4e487b7100000000000000000000000000000000000000000000000000000000600052602260045260246000fd5b6000600282049050600182168062000c6657607f821691505b60208210810362000c7c5762000c7b62000c1e565b5b50919050565b60008190508160005260206000209050919050565b60006020601f8301049050919050565b600082821b905092915050565b60006008830262000ce67fffffffffffffffffffffffffffffffffffffffffffffffffffffffffffffffff8262000ca7565b62000cf2868362000ca7565b95508019841693508086168417925050509392505050565b6000819050919050565b600062000d3562000d2f62000d2984620009ae565b62000d0a565b620009ae565b9050919050565b6000819050919050565b62000d518362000d14565b62000d6962000d608262000d3c565b84845462000cb4565b825550505050565b600090565b62000d8062000d71565b62000d8d81848462000d46565b505050565b5b8181101562000db55762000da960008262000d76565b60018101905062000d93565b5050565b601f82111562000e045762000dce8162000c82565b62000dd98462000c97565b8101602085101562000de9578190505b62000e0162000df88562000c97565b83018262000d92565b50505b505050565b600082821c905092915050565b600062000e296000198460080262000e09565b1980831691505092915050565b600062000e44838362000e16565b9150826002028217905092915050565b62000e5f8262000c13565b67ffffffffffffffff81111562000e7b5762000e7a6200071a565b5b62000e87825462000c4d565b62000e9482828562000db9565b600060209050601f83116001811462000ecc576000841562000eb7578287015190505b62000ec3858262000e36565b86555062000f33565b601f19841662000edc8662000c82565b60005b8281101562000f065784890151825560018201915060208501945060208101905062000edf565b8683101562000f26578489015162000f22601f89168262000e16565b8355505b6001600288020188555050505b505050505050565b7f4e487b7100000000000000000000000000000000000000000000000000000000600052603260045260246000fd5b7f4e487b7100000000000000000000000000000000000000000000000000000000600052601160045260246000fd5b600062000fa682620009ae565b915062000fb383620009ae565b925082820190508082111562000fce5762000fcd62000f6a565b5b92915050565b600082825260208201905092915050565b600062000ff28262000c13565b62000ffe818562000fd4565b9350620010108185602086016200080d565b6200101b8162000709565b840191505092915050565b6200103181620009ae565b82525050565b6000608082019050818103600083015262001053818762000fe5565b9050818103602083015262001069818662000fe5565b90506200107a604083018562001026565b81810360608301526200108e818462000fe5565b905095945050505050565b6155f780620010a96000396000f3fe608060405234801561001057600080fd5b506004361061014d5760003560e01c80637df124a1116100c3578063b953084e1161007c578063b953084e146103b9578063c87b56dd146103d7578063c8cf27f414610407578063d4f24c5b14610425578063e985e9c51461042f578063f8b81ef71461045f5761014d565b80637df124a1146102dc57806395d89b411461030c57806398da4c951461032a578063a22cb4651461035f578063a9c326791461037b578063b88d4fde1461039d5761014d565b8063095ea7b311610115578063095ea7b3146101f857806323b872dd1461021457806325ca4cff1461023057806342842e0e146102605780636352211e1461027c57806370a08231146102ac5761014d565b806301ffc9a7146101525780630434fe0b146101825780630665f9611461018c57806306fdde03146101aa578063081812fc146101c8575b600080fd5b61016c60048036038101906101679190613674565b61047b565b60405161017991906136bc565b60405180910390f35b61018a61055d565b005b610194610763565b6040516101a191906137fd565b60405180910390f35b6101b26108bf565b6040516101bf9190613869565b60405180910390f35b6101e260048036038101906101dd91906138b7565b610951565b6040516101ef9190613925565b60405180910390f35b610212600480360381019061020d919061396c565b610997565b005b61022e600480360381019061022991906139ac565b610aae565b005b61024a600480360381019061024591906139ff565b610b0e565b6040516102579190613a3b565b60405180910390f35b61027a600480360381019061027591906139ac565b610b26565b005b610296600480360381019061029191906138b7565b610b46565b6040516102a39190613925565b60405180910390f35b6102c660048036038101906102c191906139ff565b610bcc565b6040516102d39190613a3b565b60405180910390f35b6102f660048036038101906102f191906139ff565b610c83565b6040516103039190613a3b565b60405180910390f35b610314610c9b565b6040516103219190613869565b60405180910390f35b610344600480360381019061033f91906138b7565b610d2d565b60405161035696959493929190613a56565b60405180910390f35b61037960048036038101906103749190613af1565b610e79565b005b610383610e8f565b604051610394959493929190613b31565b60405180910390f35b6103b760048036038101906103b29190613cc7565b610fc3565b005b6103c1611025565b6040516103ce9190613e9c565b60405180910390f35b6103f160048036038101906103ec91906138b7565b6111d0565b6040516103fe9190613869565b60405180910390f35b61040f6113eb565b60405161041c9190613f4e565b60405180910390f35b61042d6115c3565b005b61044960048036038101906104449190613f70565b611d16565b60405161045691906136bc565b60405180910390f35b610479600480360381019061047491906138b7565b611daa565b005b60007f80ac58cd000000000000000000000000000000000000000000000000000000007bffffffffffffffffffffffffffffffffffffffffffffffffffffffff1916827bffffffffffffffffffffffffffffffffffffffffffffffffffffffff1916148061054657507f5b5e139f000000000000000000000000000000000000000000000000000000007bffffffffffffffffffffffffffffffffffffffffffffffffffffffff1916827bffffffffffffffffffffffffffffffffffffffffffffffffffffffff1916145b8061055657506105558261218a565b5b9050919050565b6000600960003373ffffffffffffffffffffffffffffffffffffffff1673ffffffffffffffffffffffffffffffffffffffff16815260200190815260200160002054905060006008600083815260200190815260200160002090506105c182610b46565b73ffffffffffffffffffffffffffffffffffffffff163373ffffffffffffffffffffffffffffffffffffffff161461062e576040517f08c379a000000000000000000000000000000000000000000000000000000000815260040161062590614022565b60405180910390fd5b8060030154816004015411610678576040517f08c379a000000000000000000000000000000000000000000000000000000000815260040161066f906140b4565b60405180910390fd5b601e600a60003373ffffffffffffffffffffffffffffffffffffffff1673ffffffffffffffffffffffffffffffffffffffff1681526020019081526020016000205410156106fb576040517f08c379a00000000000000000000000000000000000000000000000000000000081526004016106f290614120565b60405180910390fd5b601e600a60003373ffffffffffffffffffffffffffffffffffffffff1673ffffffffffffffffffffffffffffffffffffffff168152602001908152602001600020600082825461074b919061416f565b92505081905550806004015481600301819055505050565b61076b6135a3565b600b6040518060a0016040529081600082018054610788906141d2565b80601f01602080910402602001604051908101604052809291908181526020018280546107b4906141d2565b80156108015780601f106107d657610100808354040283529160200191610801565b820191906000526020600020905b8154815290600101906020018083116107e457829003601f168201915b5050505050815260200160018201805461081a906141d2565b80601f0160208091040260200160405190810160405280929190818152602001828054610846906141d2565b80156108935780601f1061086857610100808354040283529160200191610893565b820191906000526020600020905b81548152906001019060200180831161087657829003601f168201915b505050505081526020016002820154815260200160038201548152602001600482015481525050905090565b6060600080546108ce906141d2565b80601f01602080910402602001604051908101604052809291908181526020018280546108fa906141d2565b80156109475780601f1061091c57610100808354040283529160200191610947565b820191906000526020600020905b81548152906001019060200180831161092a57829003601f168201915b5050505050905090565b600061095c826121f4565b6004600083815260200190815260200160002060009054906101000a900473ffffffffffffffffffffffffffffffffffffffff169050919050565b60006109a282610b46565b90508073ffffffffffffffffffffffffffffffffffffffff168373ffffffffffffffffffffffffffffffffffffffff1603610a12576040517f08c379a0000000000000000000000000000000000000000000000000000000008152600401610a0990614275565b60405180910390fd5b8073ffffffffffffffffffffffffffffffffffffffff16610a3161223f565b73ffffffffffffffffffffffffffffffffffffffff161480610a605750610a5f81610a5a61223f565b611d16565b5b610a9f576040517f08c379a0000000000000000000000000000000000000000000000000000000008152600401610a9690614307565b60405180910390fd5b610aa98383612247565b505050565b610abf610ab961223f565b82612300565b610afe576040517f08c379a0000000000000000000000000000000000000000000000000000000008152600401610af590614399565b60405180910390fd5b610b09838383612395565b505050565b600a6020528060005260406000206000915090505481565b610b4183838360405180602001604052806000815250610fc3565b505050565b600080610b528361268e565b9050600073ffffffffffffffffffffffffffffffffffffffff168173ffffffffffffffffffffffffffffffffffffffff1603610bc3576040517f08c379a0000000000000000000000000000000000000000000000000000000008152600401610bba90614405565b60405180910390fd5b80915050919050565b60008073ffffffffffffffffffffffffffffffffffffffff168273ffffffffffffffffffffffffffffffffffffffff1603610c3c576040517f08c379a0000000000000000000000000000000000000000000000000000000008152600401610c3390614497565b60405180910390fd5b600360008373ffffffffffffffffffffffffffffffffffffffff1673ffffffffffffffffffffffffffffffffffffffff168152602001908152602001600020549050919050565b60096020528060005260406000206000915090505481565b606060018054610caa906141d2565b80601f0160208091040260200160405190810160405280929190818152602001828054610cd6906141d2565b8015610d235780601f10610cf857610100808354040283529160200191610d23565b820191906000526020600020905b815481529060010190602001808311610d0657829003601f168201915b5050505050905090565b6008602052806000526040600020600091509050806000015490806001018054610d56906141d2565b80601f0160208091040260200160405190810160405280929190818152602001828054610d82906141d2565b8015610dcf5780601f10610da457610100808354040283529160200191610dcf565b820191906000526020600020905b815481529060010190602001808311610db257829003601f168201915b505050505090806002018054610de4906141d2565b80601f0160208091040260200160405190810160405280929190818152602001828054610e10906141d2565b8015610e5d5780601f10610e3257610100808354040283529160200191610e5d565b820191906000526020600020905b815481529060010190602001808311610e4057829003601f168201915b5050505050908060030154908060040154908060050154905086565b610e8b610e8461223f565b83836126cb565b5050565b600b806000018054610ea0906141d2565b80601f0160208091040260200160405190810160405280929190818152602001828054610ecc906141d2565b8015610f195780601f10610eee57610100808354040283529160200191610f19565b820191906000526020600020905b815481529060010190602001808311610efc57829003601f168201915b505050505090806001018054610f2e906141d2565b80601f0160208091040260200160405190810160405280929190818152602001828054610f5a906141d2565b8015610fa75780601f10610f7c57610100808354040283529160200191610fa7565b820191906000526020600020905b815481529060010190602001808311610f8a57829003601f168201915b5050505050908060020154908060030154908060040154905085565b610fd4610fce61223f565b83612300565b611013576040517f08c379a000000000000000000000000000000000000000000000000000000000815260040161100a90614399565b60405180910390fd5b61101f84848484612837565b50505050565b60606007805480602002602001604051908101604052809291908181526020016000905b828210156111c757838290600052602060002090600602016040518060c001604052908160008201548152602001600182018054611086906141d2565b80601f01602080910402602001604051908101604052809291908181526020018280546110b2906141d2565b80156110ff5780601f106110d4576101008083540402835291602001916110ff565b820191906000526020600020905b8154815290600101906020018083116110e257829003601f168201915b50505050508152602001600282018054611118906141d2565b80601f0160208091040260200160405190810160405280929190818152602001828054611144906141d2565b80156111915780601f1061116657610100808354040283529160200191611191565b820191906000526020600020905b81548152906001019060200180831161117457829003601f168201915b50505050508152602001600382015481526020016004820154815260200160058201548152505081526020019060010190611049565b50505050905090565b60606000600860008481526020019081526020016000206040518060c00160405290816000820154815260200160018201805461120c906141d2565b80601f0160208091040260200160405190810160405280929190818152602001828054611238906141d2565b80156112855780601f1061125a57610100808354040283529160200191611285565b820191906000526020600020905b81548152906001019060200180831161126857829003601f168201915b5050505050815260200160028201805461129e906141d2565b80601f01602080910402602001604051908101604052809291908181526020018280546112ca906141d2565b80156113175780601f106112ec57610100808354040283529160200191611317565b820191906000526020600020905b8154815290600101906020018083116112fa57829003601f168201915b5050505050815260200160038201548152602001600482015481526020016005820154815250509050600061134f8260600151612893565b905060006113608360800151612893565b905060006113718460a00151612893565b905060006113b7856020015161138689612893565b87604001518787876040516020016113a3969594939291906147c5565b604051602081830303815290604052612961565b90506000816040516020016113cc91906148b6565b6040516020818303038152906040529050809650505050505050919050565b6113f36135d2565b6000600960003373ffffffffffffffffffffffffffffffffffffffff1673ffffffffffffffffffffffffffffffffffffffff16815260200190815260200160002054905060008111156115b257600860008281526020019081526020016000206040518060c001604052908160008201548152602001600182018054611478906141d2565b80601f01602080910402602001604051908101604052809291908181526020018280546114a4906141d2565b80156114f15780601f106114c6576101008083540402835291602001916114f1565b820191906000526020600020905b8154815290600101906020018083116114d457829003601f168201915b5050505050815260200160028201805461150a906141d2565b80601f0160208091040260200160405190810160405280929190818152602001828054611536906141d2565b80156115835780601f1061155857610100808354040283529160200191611583565b820191906000526020600020905b81548152906001019060200180831161156657829003601f168201915b5050505050815260200160038201548152602001600482015481526020016005820154815250509150506115c0565b6115ba6135d2565b80925050505b90565b6000600960003373ffffffffffffffffffffffffffffffffffffffff1673ffffffffffffffffffffffffffffffffffffffff16815260200190815260200160002054905060006008600083815260200190815260200160002090506116d66040518060600160405280603c8152602001615586603c9139826001018054611649906141d2565b80601f0160208091040260200160405190810160405280929190818152602001828054611675906141d2565b80156116c25780601f10611697576101008083540402835291602001916116c2565b820191906000526020600020905b8154815290600101906020018083116116a557829003601f168201915b505050505083600301548460050154612af8565b6117ae6040518060400160405280601b81526020017f426f73732025732068617320257320485020616e642025732041440000000000815250600b600001805461171f906141d2565b80601f016020809104026020016040519081016040528092919081815260200182805461174b906141d2565b80156117985780601f1061176d57610100808354040283529160200191611798565b820191906000526020600020905b81548152906001019060200180831161177b57829003601f168201915b5050505050600b60020154600b60040154612af8565b60008160030154116117f5576040517f08c379a00000000000000000000000000000000000000000000000000000000081526004016117ec9061494a565b60405180910390fd5b6000600b600201541161183d576040517f08c379a0000000000000000000000000000000000000000000000000000000008152600401611834906149dc565b60405180910390fd5b8060050154600b60020154101561185e576000600b60020181905550611aab565b600861186a600a612b9a565b1115611981578060050154600261188191906149fc565b600b60020154101561189d576000600b6002018190555061197c565b806005015460026118ae91906149fc565b600b600201546118be919061416f565b600b6002018190555061197b6040518060600160405280603b815260200161554b603b91398260010180546118f2906141d2565b80601f016020809104026020016040519081016040528092919081815260200182805461191e906141d2565b801561196b5780601f106119405761010080835404028352916020019161196b565b820191906000526020600020905b81548152906001019060200180831161194e57829003601f168201915b5050505050600b60020154612bf6565b5b611a54565b8060050154600b60020154611996919061416f565b600b60020181905550611a5360405180606001604052806021815260200161544a602191398260010180546119ca906141d2565b80601f01602080910402602001604051908101604052809291908181526020018280546119f6906141d2565b8015611a435780601f10611a1857610100808354040283529160200191611a43565b820191906000526020600020905b815481529060010190602001808311611a2657829003601f168201915b5050505050600b60020154612bf6565b5b600a8060003373ffffffffffffffffffffffffffffffffffffffff1673ffffffffffffffffffffffffffffffffffffffff1681526020019081526020016000206000828254611aa39190614a3e565b925050819055505b600b6004015481600301541015611acb5760008160030181905550611c81565b6007611ad7600a612b9a565b1015611bb357600b600401548160030154611af2919061416f565b8160030181905550611bae60405180606001604052806025815260200161546b60259139600b6000018054611b26906141d2565b80601f0160208091040260200160405190810160405280929190818152602001828054611b52906141d2565b8015611b9f5780601f10611b7457610100808354040283529160200191611b9f565b820191906000526020600020905b815481529060010190602001808311611b8257829003601f168201915b50505050508360030154612bf6565b611c80565b611c7f6040518060400160405280600b81526020017f2573206d6973736564210a000000000000000000000000000000000000000000815250600b6000018054611bfc906141d2565b80601f0160208091040260200160405190810160405280929190818152602001828054611c28906141d2565b8015611c755780601f10611c4a57610100808354040283529160200191611c75565b820191906000526020600020905b815481529060010190602001808311611c5857829003601f168201915b5050505050612c95565b5b5b611ca860405180606001604052806025815260200161549060259139600b60020154612d31565b611cce6040518060600160405280602881526020016154f5602891398260030154612d31565b7f32bd565ee3f2cb5ddd742bbecd6048d3e9abe90b3827a40c2b72d232e71e3c9d33600b600201548360030154604051611d0a93929190614a72565b60405180910390a15050565b6000600560008473ffffffffffffffffffffffffffffffffffffffff1673ffffffffffffffffffffffffffffffffffffffff16815260200190815260200160002060008373ffffffffffffffffffffffffffffffffffffffff1673ffffffffffffffffffffffffffffffffffffffff16815260200190815260200160002060009054906101000a900460ff16905092915050565b6000611db66006612dcd565b9050611dc23382612ddb565b6040518060c0016040528083815260200160078481548110611de757611de6614aa9565b5b90600052602060002090600602016001018054611e03906141d2565b80601f0160208091040260200160405190810160405280929190818152602001828054611e2f906141d2565b8015611e7c5780601f10611e5157610100808354040283529160200191611e7c565b820191906000526020600020905b815481529060010190602001808311611e5f57829003601f168201915b5050505050815260200160078481548110611e9a57611e99614aa9565b5b90600052602060002090600602016002018054611eb6906141d2565b80601f0160208091040260200160405190810160405280929190818152602001828054611ee2906141d2565b8015611f2f5780601f10611f0457610100808354040283529160200191611f2f565b820191906000526020600020905b815481529060010190602001808311611f1257829003601f168201915b5050505050815260200160078481548110611f4d57611f4c614aa9565b5b906000526020600020906006020160030154815260200160078481548110611f7857611f77614aa9565b5b906000526020600020906006020160040154815260200160078481548110611fa357611fa2614aa9565b5b90600052602060002090600602016005015481525060086000838152602001908152602001600020600082015181600001556020820151816001019081611fea9190614c84565b5060408201518160020190816120009190614c84565b50606082015181600301556080820151816004015560a082015181600501559050506120456040518060600160405280602e815260200161551d602e91398284612df9565b80600960003373ffffffffffffffffffffffffffffffffffffffff1673ffffffffffffffffffffffffffffffffffffffff168152602001908152602001600020819055506120936006612174565b7f4bc303fd457a97b4691b9af582ce71868a3d258638c8d4f8c60988a0f0bfb8cd3382846040516120c693929190614a72565b60405180910390a15050565b61216e848484846040516024016120ec9493929190614d56565b6040516020818303038152906040527f5d1a971a000000000000000000000000000000000000000000000000000000007bffffffffffffffffffffffffffffffffffffffffffffffffffffffff19166020820180517bffffffffffffffffffffffffffffffffffffffffffffffffffffffff8381831617835250505050612e98565b50505050565b6001816000016000828254019250508190555050565b60007f01ffc9a7000000000000000000000000000000000000000000000000000000007bffffffffffffffffffffffffffffffffffffffffffffffffffffffff1916827bffffffffffffffffffffffffffffffffffffffffffffffffffffffff1916149050919050565b6121fd81612ec1565b61223c576040517f08c379a000000000000000000000000000000000000000000000000000000000815260040161223390614405565b60405180910390fd5b50565b600033905090565b816004600083815260200190815260200160002060006101000a81548173ffffffffffffffffffffffffffffffffffffffff021916908373ffffffffffffffffffffffffffffffffffffffff160217905550808273ffffffffffffffffffffffffffffffffffffffff166122ba83610b46565b73ffffffffffffffffffffffffffffffffffffffff167f8c5be1e5ebec7d5bd14f71427d1e84f3dd0314c0f7b2291e5b200ac8c7c3b92560405160405180910390a45050565b60008061230c83610b46565b90508073ffffffffffffffffffffffffffffffffffffffff168473ffffffffffffffffffffffffffffffffffffffff16148061234e575061234d8185611d16565b5b8061238c57508373ffffffffffffffffffffffffffffffffffffffff1661237484610951565b73ffffffffffffffffffffffffffffffffffffffff16145b91505092915050565b8273ffffffffffffffffffffffffffffffffffffffff166123b582610b46565b73ffffffffffffffffffffffffffffffffffffffff161461240b576040517f08c379a000000000000000000000000000000000000000000000000000000000815260040161240290614e22565b60405180910390fd5b600073ffffffffffffffffffffffffffffffffffffffff168273ffffffffffffffffffffffffffffffffffffffff160361247a576040517f08c379a000000000000000000000000000000000000000000000000000000000815260040161247190614eb4565b60405180910390fd5b6124878383836001612f02565b8273ffffffffffffffffffffffffffffffffffffffff166124a782610b46565b73ffffffffffffffffffffffffffffffffffffffff16146124fd576040517f08c379a00000000000000000000000000000000000000000000000000000000081526004016124f490614e22565b60405180910390fd5b6004600082815260200190815260200160002060006101000a81549073ffffffffffffffffffffffffffffffffffffffff02191690556001600360008573ffffffffffffffffffffffffffffffffffffffff1673ffffffffffffffffffffffffffffffffffffffff168152602001908152602001600020600082825403925050819055506001600360008473ffffffffffffffffffffffffffffffffffffffff1673ffffffffffffffffffffffffffffffffffffffff16815260200190815260200160002060008282540192505081905550816002600083815260200190815260200160002060006101000a81548173ffffffffffffffffffffffffffffffffffffffff021916908373ffffffffffffffffffffffffffffffffffffffff160217905550808273ffffffffffffffffffffffffffffffffffffffff168473ffffffffffffffffffffffffffffffffffffffff167fddf252ad1be2c89b69c2b068fc378daa952ba7f163c4a11628f55a4df523b3ef60405160405180910390a46126898383836001613028565b505050565b60006002600083815260200190815260200160002060009054906101000a900473ffffffffffffffffffffffffffffffffffffffff169050919050565b8173ffffffffffffffffffffffffffffffffffffffff168373ffffffffffffffffffffffffffffffffffffffff1603612739576040517f08c379a000000000000000000000000000000000000000000000000000000000815260040161273090614f20565b60405180910390fd5b80600560008573ffffffffffffffffffffffffffffffffffffffff1673ffffffffffffffffffffffffffffffffffffffff16815260200190815260200160002060008473ffffffffffffffffffffffffffffffffffffffff1673ffffffffffffffffffffffffffffffffffffffff16815260200190815260200160002060006101000a81548160ff0219169083151502179055508173ffffffffffffffffffffffffffffffffffffffff168373ffffffffffffffffffffffffffffffffffffffff167f17307eab39ab6107e8899845ad3d59bd9653f200f220920489ca2b5937696c318360405161282a91906136bc565b60405180910390a3505050565b612842848484612395565b61284e8484848461302e565b61288d576040517f08c379a000000000000000000000000000000000000000000000000000000000815260040161288490614fb2565b60405180910390fd5b50505050565b6060600060016128a2846131b5565b01905060008167ffffffffffffffff8111156128c1576128c0613b9c565b5b6040519080825280601f01601f1916602001820160405280156128f35781602001600182028036833780820191505090505b509050600082602001820190505b600115612956578080600190039150507f3031323334353637383961626364656600000000000000000000000000000000600a86061a8153600a858161294a57612949614fd2565b5b04945060008503612901575b819350505050919050565b6060600082519050600081036129895760405180602001604052806000815250915050612af3565b6000600360028361299a9190614a3e565b6129a49190615001565b60046129b091906149fc565b905060006020826129c19190614a3e565b67ffffffffffffffff8111156129da576129d9613b9c565b5b6040519080825280601f01601f191660200182016040528015612a0c5781602001600182028036833780820191505090505b50905060006040518060600160405280604081526020016154b5604091399050600181016020830160005b86811015612ab05760038101905062ffffff818a015116603f8160121c168401518060081b905060ff603f83600c1c1686015116810190508060081b905060ff603f8360061c1686015116810190508060081b905060ff603f831686015116810190508060e01b90508084526004840193505050612a37565b506003860660018114612aca5760028114612ada57612ae5565b613d3d60f01b6002830352612ae5565b603d60f81b60018303525b508484525050819450505050505b919050565b612b9484848484604051602401612b129493929190615032565b6040516020818303038152906040527ff45d7d2c000000000000000000000000000000000000000000000000000000007bffffffffffffffffffffffffffffffffffffffffffffffffffffffff19166020820180517bffffffffffffffffffffffffffffffffffffffffffffffffffffffff8381831617835250505050612e98565b50505050565b600060106000815480929190612baf90615085565b9190505550814233601054604051602001612bcc93929190615136565b6040516020818303038152906040528051906020012060001c612bef9190615173565b9050919050565b612c90838383604051602401612c0e939291906151a4565b6040516020818303038152906040527f5821efa1000000000000000000000000000000000000000000000000000000007bffffffffffffffffffffffffffffffffffffffffffffffffffffffff19166020820180517bffffffffffffffffffffffffffffffffffffffffffffffffffffffff8381831617835250505050612e98565b505050565b612d2d8282604051602401612cab9291906151e9565b6040516020818303038152906040527f4b5c4277000000000000000000000000000000000000000000000000000000007bffffffffffffffffffffffffffffffffffffffffffffffffffffffff19166020820180517bffffffffffffffffffffffffffffffffffffffffffffffffffffffff8381831617835250505050612e98565b5050565b612dc98282604051602401612d47929190615220565b6040516020818303038152906040527fb60e72cc000000000000000000000000000000000000000000000000000000007bffffffffffffffffffffffffffffffffffffffffffffffffffffffff19166020820180517bffffffffffffffffffffffffffffffffffffffffffffffffffffffff8381831617835250505050612e98565b5050565b600081600001549050919050565b612df5828260405180602001604052806000815250613308565b5050565b612e93838383604051602401612e1193929190615250565b6040516020818303038152906040527fca47c4eb000000000000000000000000000000000000000000000000000000007bffffffffffffffffffffffffffffffffffffffffffffffffffffffff19166020820180517bffffffffffffffffffffffffffffffffffffffffffffffffffffffff8381831617835250505050612e98565b505050565b60008151905060006a636f6e736f6c652e6c6f679050602083016000808483855afa5050505050565b60008073ffffffffffffffffffffffffffffffffffffffff16612ee38361268e565b73ffffffffffffffffffffffffffffffffffffffff1614159050919050565b600181111561302257600073ffffffffffffffffffffffffffffffffffffffff168473ffffffffffffffffffffffffffffffffffffffff1614612f965780600360008673ffffffffffffffffffffffffffffffffffffffff1673ffffffffffffffffffffffffffffffffffffffff1681526020019081526020016000206000828254612f8e919061416f565b925050819055505b600073ffffffffffffffffffffffffffffffffffffffff168373ffffffffffffffffffffffffffffffffffffffff16146130215780600360008573ffffffffffffffffffffffffffffffffffffffff1673ffffffffffffffffffffffffffffffffffffffff16815260200190815260200160002060008282546130199190614a3e565b925050819055505b5b50505050565b50505050565b600061304f8473ffffffffffffffffffffffffffffffffffffffff16613363565b156131a8578373ffffffffffffffffffffffffffffffffffffffff1663150b7a0261307861223f565b8786866040518563ffffffff1660e01b815260040161309a94939291906152e3565b6020604051808303816000875af19250505080156130d657506040513d601f19601f820116820180604052508101906130d39190615344565b60015b613158573d8060008114613106576040519150601f19603f3d011682016040523d82523d6000602084013e61310b565b606091505b506000815103613150576040517f08c379a000000000000000000000000000000000000000000000000000000000815260040161314790614fb2565b60405180910390fd5b805181602001fd5b63150b7a0260e01b7bffffffffffffffffffffffffffffffffffffffffffffffffffffffff1916817bffffffffffffffffffffffffffffffffffffffffffffffffffffffff1916149150506131ad565b600190505b949350505050565b600080600090507a184f03e93ff9f4daa797ed6e38ed64bf6a1f0100000000000000008310613213577a184f03e93ff9f4daa797ed6e38ed64bf6a1f010000000000000000838161320957613208614fd2565b5b0492506040810190505b6d04ee2d6d415b85acef81000000008310613250576d04ee2d6d415b85acef8100000000838161324657613245614fd2565b5b0492506020810190505b662386f26fc10000831061327f57662386f26fc10000838161327557613274614fd2565b5b0492506010810190505b6305f5e10083106132a8576305f5e100838161329e5761329d614fd2565b5b0492506008810190505b61271083106132cd5761271083816132c3576132c2614fd2565b5b0492506004810190505b606483106132f057606483816132e6576132e5614fd2565b5b0492506002810190505b600a83106132ff576001810190505b80915050919050565b6133128383613386565b61331f600084848461302e565b61335e576040517f08c379a000000000000000000000000000000000000000000000000000000000815260040161335590614fb2565b60405180910390fd5b505050565b6000808273ffffffffffffffffffffffffffffffffffffffff163b119050919050565b600073ffffffffffffffffffffffffffffffffffffffff168273ffffffffffffffffffffffffffffffffffffffff16036133f5576040517f08c379a00000000000000000000000000000000000000000000000000000000081526004016133ec906153bd565b60405180910390fd5b6133fe81612ec1565b1561343e576040517f08c379a000000000000000000000000000000000000000000000000000000000815260040161343590615429565b60405180910390fd5b61344c600083836001612f02565b61345581612ec1565b15613495576040517f08c379a000000000000000000000000000000000000000000000000000000000815260040161348c90615429565b60405180910390fd5b6001600360008473ffffffffffffffffffffffffffffffffffffffff1673ffffffffffffffffffffffffffffffffffffffff16815260200190815260200160002060008282540192505081905550816002600083815260200190815260200160002060006101000a81548173ffffffffffffffffffffffffffffffffffffffff021916908373ffffffffffffffffffffffffffffffffffffffff160217905550808273ffffffffffffffffffffffffffffffffffffffff16600073ffffffffffffffffffffffffffffffffffffffff167fddf252ad1be2c89b69c2b068fc378daa952ba7f163c4a11628f55a4df523b3ef60405160405180910390a461359f600083836001613028565b5050565b6040518060a0016040528060608152602001606081526020016000815260200160008152602001600081525090565b6040518060c001604052806000815260200160608152602001606081526020016000815260200160008152602001600081525090565b6000604051905090565b600080fd5b600080fd5b60007fffffffff0000000000000000000000000000000000000000000000000000000082169050919050565b6136518161361c565b811461365c57600080fd5b50565b60008135905061366e81613648565b92915050565b60006020828403121561368a57613689613612565b5b60006136988482850161365f565b91505092915050565b60008115159050919050565b6136b6816136a1565b82525050565b60006020820190506136d160008301846136ad565b92915050565b600081519050919050565b600082825260208201905092915050565b60005b838110156137115780820151818401526020810190506136f6565b60008484015250505050565b6000601f19601f8301169050919050565b6000613739826136d7565b61374381856136e2565b93506137538185602086016136f3565b61375c8161371d565b840191505092915050565b6000819050919050565b61377a81613767565b82525050565b600060a083016000830151848203600086015261379d828261372e565b915050602083015184820360208601526137b7828261372e565b91505060408301516137cc6040860182613771565b5060608301516137df6060860182613771565b5060808301516137f26080860182613771565b508091505092915050565b600060208201905081810360008301526138178184613780565b905092915050565b600082825260208201905092915050565b600061383b826136d7565b613845818561381f565b93506138558185602086016136f3565b61385e8161371d565b840191505092915050565b600060208201905081810360008301526138838184613830565b905092915050565b61389481613767565b811461389f57600080fd5b50565b6000813590506138b18161388b565b92915050565b6000602082840312156138cd576138cc613612565b5b60006138db848285016138a2565b91505092915050565b600073ffffffffffffffffffffffffffffffffffffffff82169050919050565b600061390f826138e4565b9050919050565b61391f81613904565b82525050565b600060208201905061393a6000830184613916565b92915050565b61394981613904565b811461395457600080fd5b50565b60008135905061396681613940565b92915050565b6000806040838503121561398357613982613612565b5b600061399185828601613957565b92505060206139a2858286016138a2565b9150509250929050565b6000806000606084860312156139c5576139c4613612565b5b60006139d386828701613957565b93505060206139e486828701613957565b92505060406139f5868287016138a2565b9150509250925092565b600060208284031215613a1557613a14613612565b5b6000613a2384828501613957565b91505092915050565b613a3581613767565b82525050565b6000602082019050613a506000830184613a2c565b92915050565b600060c082019050613a6b6000830189613a2c565b8181036020830152613a7d8188613830565b90508181036040830152613a918187613830565b9050613aa06060830186613a2c565b613aad6080830185613a2c565b613aba60a0830184613a2c565b979650505050505050565b613ace816136a1565b8114613ad957600080fd5b50565b600081359050613aeb81613ac5565b92915050565b60008060408385031215613b0857613b07613612565b5b6000613b1685828601613957565b9250506020613b2785828601613adc565b9150509250929050565b600060a0820190508181036000830152613b4b8188613830565b90508181036020830152613b5f8187613830565b9050613b6e6040830186613a2c565b613b7b6060830185613a2c565b613b886080830184613a2c565b9695505050505050565b600080fd5b600080fd5b7f4e487b7100000000000000000000000000000000000000000000000000000000600052604160045260246000fd5b613bd48261371d565b810181811067ffffffffffffffff82111715613bf357613bf2613b9c565b5b80604052505050565b6000613c06613608565b9050613c128282613bcb565b919050565b600067ffffffffffffffff821115613c3257613c31613b9c565b5b613c3b8261371d565b9050602081019050919050565b82818337600083830152505050565b6000613c6a613c6584613c17565b613bfc565b905082815260208101848484011115613c8657613c85613b97565b5b613c91848285613c48565b509392505050565b600082601f830112613cae57613cad613b92565b5b8135613cbe848260208601613c57565b91505092915050565b60008060008060808587031215613ce157613ce0613612565b5b6000613cef87828801613957565b9450506020613d0087828801613957565b9350506040613d11878288016138a2565b925050606085013567ffffffffffffffff811115613d3257613d31613617565b5b613d3e87828801613c99565b91505092959194509250565b600081519050919050565b600082825260208201905092915050565b6000819050602082019050919050565b600060c083016000830151613d8e6000860182613771565b5060208301518482036020860152613da6828261372e565b91505060408301518482036040860152613dc0828261372e565b9150506060830151613dd56060860182613771565b506080830151613de86080860182613771565b5060a0830151613dfb60a0860182613771565b508091505092915050565b6000613e128383613d76565b905092915050565b6000602082019050919050565b6000613e3282613d4a565b613e3c8185613d55565b935083602082028501613e4e85613d66565b8060005b85811015613e8a5784840389528151613e6b8582613e06565b9450613e7683613e1a565b925060208a01995050600181019050613e52565b50829750879550505050505092915050565b60006020820190508181036000830152613eb68184613e27565b905092915050565b600060c083016000830151613ed66000860182613771565b5060208301518482036020860152613eee828261372e565b91505060408301518482036040860152613f08828261372e565b9150506060830151613f1d6060860182613771565b506080830151613f306080860182613771565b5060a0830151613f4360a0860182613771565b508091505092915050565b60006020820190508181036000830152613f688184613ebe565b905092915050565b60008060408385031215613f8757613f86613612565b5b6000613f9585828601613957565b9250506020613fa685828601613957565b9150509250929050565b7f596f75206d757374206f776e2074686973204e465420746f206865616c20746860008201527f6520636861726163746572210000000000000000000000000000000000000000602082015250565b600061400c602c8361381f565b915061401782613fb0565b604082019050919050565b6000602082019050818103600083015261403b81613fff565b9050919050565b7f596f75722063686172616374657220616c7265616479206861732066756c6c2060008201527f4850210000000000000000000000000000000000000000000000000000000000602082015250565b600061409e60238361381f565b91506140a982614042565b604082019050919050565b600060208201905081810360008301526140cd81614091565b9050919050565b7f4e6f7420656e6f75676820706f696e747320746f206865616c2e000000000000600082015250565b600061410a601a8361381f565b9150614115826140d4565b602082019050919050565b60006020820190508181036000830152614139816140fd565b9050919050565b7f4e487b7100000000000000000000000000000000000000000000000000000000600052601160045260246000fd5b600061417a82613767565b915061418583613767565b925082820390508181111561419d5761419c614140565b5b92915050565b7f4e487b7100000000000000000000000000000000000000000000000000000000600052602260045260246000fd5b600060028204905060018216806141ea57607f821691505b6020821081036141fd576141fc6141a3565b5b50919050565b7f4552433732313a20617070726f76616c20746f2063757272656e74206f776e6560008201527f7200000000000000000000000000000000000000000000000000000000000000602082015250565b600061425f60218361381f565b915061426a82614203565b604082019050919050565b6000602082019050818103600083015261428e81614252565b9050919050565b7f4552433732313a20617070726f76652063616c6c6572206973206e6f7420746f60008201527f6b656e206f776e6572206f7220617070726f76656420666f7220616c6c000000602082015250565b60006142f1603d8361381f565b91506142fc82614295565b604082019050919050565b60006020820190508181036000830152614320816142e4565b9050919050565b7f4552433732313a2063616c6c6572206973206e6f7420746f6b656e206f776e6560008201527f72206f7220617070726f76656400000000000000000000000000000000000000602082015250565b6000614383602d8361381f565b915061438e82614327565b604082019050919050565b600060208201905081810360008301526143b281614376565b9050919050565b7f4552433732313a20696e76616c696420746f6b656e2049440000000000000000600082015250565b60006143ef60188361381f565b91506143fa826143b9565b602082019050919050565b6000602082019050818103600083015261441e816143e2565b9050919050565b7f4552433732313a2061646472657373207a65726f206973206e6f74206120766160008201527f6c6964206f776e65720000000000000000000000000000000000000000000000602082015250565b600061448160298361381f565b915061448c82614425565b604082019050919050565b600060208201905081810360008301526144b081614474565b9050919050565b600081905092915050565b7f7b226e616d65223a202200000000000000000000000000000000000000000000600082015250565b60006144f8600a836144b7565b9150614503826144c2565b600a82019050919050565b6000614519826136d7565b61452381856144b7565b93506145338185602086016136f3565b80840191505092915050565b7f202d20477561726469616e202300000000000000000000000000000000000000600082015250565b6000614575600d836144b7565b91506145808261453f565b600d82019050919050565b7f222c20226465736372697074696f6e223a20225468697320697320616e204e4660008201527f542074686174206c6574732070656f706c6520706c617920696e20746865206760208201527f616d65205363726f6c6c20477561726469616e7320627920416476336e74757260408201527f652e78797a2e222c2022696d616765223a2022697066733a2f2f000000000000606082015250565b6000614633607a836144b7565b915061463e8261458b565b607a82019050919050565b7f222c202261747472696275746573223a205b207b202274726169745f7479706560008201527f223a20224865616c746820506f696e7473222c202276616c7565223a20000000602082015250565b60006146a5603d836144b7565b91506146b082614649565b603d82019050919050565b7f2c20226d61785f76616c7565223a000000000000000000000000000000000000600082015250565b60006146f1600e836144b7565b91506146fc826146bb565b600e82019050919050565b7f7d2c207b202274726169745f74797065223a202241747461636b2044616d616760008201527f65222c202276616c7565223a2000000000000000000000000000000000000000602082015250565b6000614763602d836144b7565b915061476e82614707565b602d82019050919050565b7f7d205d7d00000000000000000000000000000000000000000000000000000000600082015250565b60006147af6004836144b7565b91506147ba82614779565b600482019050919050565b60006147d0826144eb565b91506147dc828961450e565b91506147e782614568565b91506147f3828861450e565b91506147fe82614626565b915061480a828761450e565b915061481582614698565b9150614821828661450e565b915061482c826146e4565b9150614838828561450e565b915061484382614756565b915061484f828461450e565b915061485a826147a2565b9150819050979650505050505050565b7f646174613a6170706c69636174696f6e2f6a736f6e3b6261736536342c000000600082015250565b60006148a0601d836144b7565b91506148ab8261486a565b601d82019050919050565b60006148c182614893565b91506148cd828461450e565b915081905092915050565b7f4572726f723a20636861726163746572206d757374206861766520485020746f60008201527f2061747461636b20626f73732e00000000000000000000000000000000000000602082015250565b6000614934602d8361381f565b915061493f826148d8565b604082019050919050565b6000602082019050818103600083015261496381614927565b9050919050565b7f4572726f723a20626f7373206d757374206861766520485020746f206174746160008201527f636b206368617261637465722e00000000000000000000000000000000000000602082015250565b60006149c6602d8361381f565b91506149d18261496a565b604082019050919050565b600060208201905081810360008301526149f5816149b9565b9050919050565b6000614a0782613767565b9150614a1283613767565b9250828202614a2081613767565b91508282048414831517614a3757614a36614140565b5b5092915050565b6000614a4982613767565b9150614a5483613767565b9250828201905080821115614a6c57614a6b614140565b5b92915050565b6000606082019050614a876000830186613916565b614a946020830185613a2c565b614aa16040830184613a2c565b949350505050565b7f4e487b7100000000000000000000000000000000000000000000000000000000600052603260045260246000fd5b60008190508160005260206000209050919050565b60006020601f8301049050919050565b600082821b905092915050565b600060088302614b3a7fffffffffffffffffffffffffffffffffffffffffffffffffffffffffffffffff82614afd565b614b448683614afd565b95508019841693508086168417925050509392505050565b6000819050919050565b6000614b81614b7c614b7784613767565b614b5c565b613767565b9050919050565b6000819050919050565b614b9b83614b66565b614baf614ba782614b88565b848454614b0a565b825550505050565b600090565b614bc4614bb7565b614bcf818484614b92565b505050565b5b81811015614bf357614be8600082614bbc565b600181019050614bd5565b5050565b601f821115614c3857614c0981614ad8565b614c1284614aed565b81016020851015614c21578190505b614c35614c2d85614aed565b830182614bd4565b50505b505050565b600082821c905092915050565b6000614c5b60001984600802614c3d565b1980831691505092915050565b6000614c748383614c4a565b9150826002028217905092915050565b614c8d826136d7565b67ffffffffffffffff811115614ca657614ca5613b9c565b5b614cb082546141d2565b614cbb828285614bf7565b600060209050601f831160018114614cee5760008415614cdc578287015190505b614ce68582614c68565b865550614d4e565b601f198416614cfc86614ad8565b60005b82811015614d2457848901518255600182019150602085019450602081019050614cff565b86831015614d415784890151614d3d601f891682614c4a565b8355505b6001600288020188555050505b505050505050565b60006080820190508181036000830152614d708187613830565b90508181036020830152614d848186613830565b9050614d936040830185613a2c565b8181036060830152614da58184613830565b905095945050505050565b7f4552433732313a207472616e736665722066726f6d20696e636f72726563742060008201527f6f776e6572000000000000000000000000000000000000000000000000000000602082015250565b6000614e0c60258361381f565b9150614e1782614db0565b604082019050919050565b60006020820190508181036000830152614e3b81614dff565b9050919050565b7f4552433732313a207472616e7366657220746f20746865207a65726f2061646460008201527f7265737300000000000000000000000000000000000000000000000000000000602082015250565b6000614e9e60248361381f565b9150614ea982614e42565b604082019050919050565b60006020820190508181036000830152614ecd81614e91565b9050919050565b7f4552433732313a20617070726f766520746f2063616c6c657200000000000000600082015250565b6000614f0a60198361381f565b9150614f1582614ed4565b602082019050919050565b60006020820190508181036000830152614f3981614efd565b9050919050565b7f4552433732313a207472616e7366657220746f206e6f6e20455243373231526560008201527f63656976657220696d706c656d656e7465720000000000000000000000000000602082015250565b6000614f9c60328361381f565b9150614fa782614f40565b604082019050919050565b60006020820190508181036000830152614fcb81614f8f565b9050919050565b7f4e487b7100000000000000000000000000000000000000000000000000000000600052601260045260246000fd5b600061500c82613767565b915061501783613767565b92508261502757615026614fd2565b5b828204905092915050565b6000608082019050818103600083015261504c8187613830565b905081810360208301526150608186613830565b905061506f6040830185613a2c565b61507c6060830184613a2c565b95945050505050565b600061509082613767565b91507fffffffffffffffffffffffffffffffffffffffffffffffffffffffffffffffff82036150c2576150c1614140565b5b600182019050919050565b6000819050919050565b6150e86150e382613767565b6150cd565b82525050565b60008160601b9050919050565b6000615106826150ee565b9050919050565b6000615118826150fb565b9050919050565b61513061512b82613904565b61510d565b82525050565b600061514282866150d7565b602082019150615152828561511f565b60148201915061516282846150d7565b602082019150819050949350505050565b600061517e82613767565b915061518983613767565b92508261519957615198614fd2565b5b828206905092915050565b600060608201905081810360008301526151be8186613830565b905081810360208301526151d28185613830565b90506151e16040830184613a2c565b949350505050565b600060408201905081810360008301526152038185613830565b905081810360208301526152178184613830565b90509392505050565b6000604082019050818103600083015261523a8185613830565b90506152496020830184613a2c565b9392505050565b6000606082019050818103600083015261526a8186613830565b90506152796020830185613a2c565b6152866040830184613a2c565b949350505050565b600081519050919050565b600082825260208201905092915050565b60006152b58261528e565b6152bf8185615299565b93506152cf8185602086016136f3565b6152d88161371d565b840191505092915050565b60006080820190506152f86000830187613916565b6153056020830186613916565b6153126040830185613a2c565b818103606083015261532481846152aa565b905095945050505050565b60008151905061533e81613648565b92915050565b60006020828403121561535a57615359613612565b5b60006153688482850161532f565b91505092915050565b7f4552433732313a206d696e7420746f20746865207a65726f2061646472657373600082015250565b60006153a760208361381f565b91506153b282615371565b602082019050919050565b600060208201905081810360008301526153d68161539a565b9050919050565b7f4552433732313a20746f6b656e20616c7265616479206d696e74656400000000600082015250565b6000615413601c8361381f565b915061541e826153dd565b602082019050919050565b6000602082019050818103600083015261544281615406565b905091905056fe25732061747461636b656420626f73732e204e657720626f73732068703a20257325732061747461636b656420706c617965722e204e657720706c617965722068703a202573506c617965722061747461636b656420626f73732e204e657720626f73732068703a2025734142434445464748494a4b4c4d4e4f505152535455565758595a6162636465666768696a6b6c6d6e6f707172737475767778797a303132333435363738392b2f426f73732061747461636b656420706c617965722e204e657720706c617965722068703a2025730a4d696e746564204e465420772f20746f6b656e496420257320616e6420636861726163746572496e64657820257325732061747461636b656420626f737320616e64206465616c7420637269746963616c2064616d61676521204e657720626f73732068703a2025730a506c6179657220772f206368617261637465722025732061626f757420746f2061747461636b2e2048617320257320485020616e64202573204144a2646970667358221220e80b1cec28cee359ca8f9c94745964fdb0d33d32bec476626588cb220de17d8c64736f6c63430008110033446f6e6520696e697469616c697a696e6720257320772f2048502025732c20696d67202573446f6e6520696e697469616c697a696e6720626f737320257320772f2048502025732c20696d67202573",
  "linkReferences": {},
  "deployedLinkReferences": {}
}