{
  "_format": "hh-sol-artifact-1",
  "contractName": "ScrollGuardians",
  "sourceName": "contracts/ScrollGuardians.sol",
  "abi": [
    {
      "inputs": [
        {
          "internalType": "string[]",
          "name": "characterNames",
          "type": "string[]"
        },
        {
          "internalType": "string[]",
          "name": "characterImageURIs",
          "type": "string[]"
        },
        {
          "internalType": "uint256[]",
          "name": "characterHp",
          "type": "uint256[]"
        },
        {
          "internalType": "uint256[]",
          "name": "characterAttackDmg",
          "type": "uint256[]"
        },
        {
          "internalType": "string",
          "name": "bossName",
          "type": "string"
        },
        {
          "internalType": "string",
          "name": "bossImageURI",
          "type": "string"
        },
        {
          "internalType": "uint256",
          "name": "bossHp",
          "type": "uint256"
        },
        {
          "internalType": "uint256",
          "name": "bossAttackDamage",
          "type": "uint256"
        }
      ],
      "stateMutability": "nonpayable",
      "type": "constructor"
    },
    {
      "anonymous": false,
      "inputs": [
        {
          "indexed": true,
          "internalType": "address",
          "name": "owner",
          "type": "address"
        },
        {
          "indexed": true,
          "internalType": "address",
          "name": "approved",
          "type": "address"
        },
        {
          "indexed": true,
          "internalType": "uint256",
          "name": "tokenId",
          "type": "uint256"
        }
      ],
      "name": "Approval",
      "type": "event"
    },
    {
      "anonymous": false,
      "inputs": [
        {
          "indexed": true,
          "internalType": "address",
          "name": "owner",
          "type": "address"
        },
        {
          "indexed": true,
          "internalType": "address",
          "name": "operator",
          "type": "address"
        },
        {
          "indexed": false,
          "internalType": "bool",
          "name": "approved",
          "type": "bool"
        }
      ],
      "name": "ApprovalForAll",
      "type": "event"
    },
    {
      "anonymous": false,
      "inputs": [
        {
          "indexed": false,
          "internalType": "address",
          "name": "sender",
          "type": "address"
        },
        {
          "indexed": false,
          "internalType": "uint256",
          "name": "newBossHp",
          "type": "uint256"
        },
        {
          "indexed": false,
          "internalType": "uint256",
          "name": "newPlayerHp",
          "type": "uint256"
        }
      ],
      "name": "AttackComplete",
      "type": "event"
    },
    {
      "anonymous": false,
      "inputs": [
        {
          "indexed": false,
          "internalType": "address",
          "name": "sender",
          "type": "address"
        },
        {
          "indexed": false,
          "internalType": "uint256",
          "name": "tokenId",
          "type": "uint256"
        },
        {
          "indexed": false,
          "internalType": "uint256",
          "name": "characterIndex",
          "type": "uint256"
        }
      ],
      "name": "CharacterNFTMinted",
      "type": "event"
    },
    {
      "anonymous": false,
      "inputs": [
        {
          "indexed": true,
          "internalType": "address",
          "name": "from",
          "type": "address"
        },
        {
          "indexed": true,
          "internalType": "address",
          "name": "to",
          "type": "address"
        },
        {
          "indexed": true,
          "internalType": "uint256",
          "name": "tokenId",
          "type": "uint256"
        }
      ],
      "name": "Transfer",
      "type": "event"
    },
    {
      "inputs": [
        {
          "internalType": "address",
          "name": "to",
          "type": "address"
        },
        {
          "internalType": "uint256",
          "name": "tokenId",
          "type": "uint256"
        }
      ],
      "name": "approve",
      "outputs": [],
      "stateMutability": "nonpayable",
      "type": "function"
    },
    {
      "inputs": [],
      "name": "attackBoss",
      "outputs": [],
      "stateMutability": "nonpayable",
      "type": "function"
    },
    {
      "inputs": [
        {
          "internalType": "address",
          "name": "owner",
          "type": "address"
        }
      ],
      "name": "balanceOf",
      "outputs": [
        {
          "internalType": "uint256",
          "name": "",
          "type": "uint256"
        }
      ],
      "stateMutability": "view",
      "type": "function"
    },
    {
      "inputs": [],
      "name": "bigBoss",
      "outputs": [
        {
          "internalType": "string",
          "name": "name",
          "type": "string"
        },
        {
          "internalType": "string",
          "name": "imageURI",
          "type": "string"
        },
        {
          "internalType": "uint256",
          "name": "hp",
          "type": "uint256"
        },
        {
          "internalType": "uint256",
          "name": "maxHp",
          "type": "uint256"
        },
        {
          "internalType": "uint256",
          "name": "attackDamage",
          "type": "uint256"
        }
      ],
      "stateMutability": "view",
      "type": "function"
    },
    {
      "inputs": [],
      "name": "checkIfUserHasNFT",
      "outputs": [
        {
          "components": [
            {
              "internalType": "uint256",
              "name": "characterIndex",
              "type": "uint256"
            },
            {
              "internalType": "string",
              "name": "name",
              "type": "string"
            },
            {
              "internalType": "string",
              "name": "imageURI",
              "type": "string"
            },
            {
              "internalType": "uint256",
              "name": "hp",
              "type": "uint256"
            },
            {
              "internalType": "uint256",
              "name": "maxHp",
              "type": "uint256"
            },
            {
              "internalType": "uint256",
              "name": "attackDamage",
              "type": "uint256"
            }
          ],
          "internalType": "struct VanillaRaiders.CharacterAttributes",
          "name": "",
          "type": "tuple"
        }
      ],
      "stateMutability": "view",
      "type": "function"
    },
    {
      "inputs": [],
      "name": "getAllDefaultCharacters",
      "outputs": [
        {
          "components": [
            {
              "internalType": "uint256",
              "name": "characterIndex",
              "type": "uint256"
            },
            {
              "internalType": "string",
              "name": "name",
              "type": "string"
            },
            {
              "internalType": "string",
              "name": "imageURI",
              "type": "string"
            },
            {
              "internalType": "uint256",
              "name": "hp",
              "type": "uint256"
            },
            {
              "internalType": "uint256",
              "name": "maxHp",
              "type": "uint256"
            },
            {
              "internalType": "uint256",
              "name": "attackDamage",
              "type": "uint256"
            }
          ],
          "internalType": "struct VanillaRaiders.CharacterAttributes[]",
          "name": "",
          "type": "tuple[]"
        }
      ],
      "stateMutability": "view",
      "type": "function"
    },
    {
      "inputs": [
        {
          "internalType": "uint256",
          "name": "tokenId",
          "type": "uint256"
        }
      ],
      "name": "getApproved",
      "outputs": [
        {
          "internalType": "address",
          "name": "",
          "type": "address"
        }
      ],
      "stateMutability": "view",
      "type": "function"
    },
    {
      "inputs": [],
      "name": "getBigBoss",
      "outputs": [
        {
          "components": [
            {
              "internalType": "string",
              "name": "name",
              "type": "string"
            },
            {
              "internalType": "string",
              "name": "imageURI",
              "type": "string"
            },
            {
              "internalType": "uint256",
              "name": "hp",
              "type": "uint256"
            },
            {
              "internalType": "uint256",
              "name": "maxHp",
              "type": "uint256"
            },
            {
              "internalType": "uint256",
              "name": "attackDamage",
              "type": "uint256"
            }
          ],
          "internalType": "struct VanillaRaiders.BigBoss",
          "name": "",
          "type": "tuple"
        }
      ],
      "stateMutability": "view",
      "type": "function"
    },
    {
      "inputs": [
        {
          "internalType": "address",
          "name": "owner",
          "type": "address"
        },
        {
          "internalType": "address",
          "name": "operator",
          "type": "address"
        }
      ],
      "name": "isApprovedForAll",
      "outputs": [
        {
          "internalType": "bool",
          "name": "",
          "type": "bool"
        }
      ],
      "stateMutability": "view",
      "type": "function"
    },
    {
      "inputs": [
        {
          "internalType": "uint256",
          "name": "_characterIndex",
          "type": "uint256"
        }
      ],
      "name": "mintCharacterNFT",
      "outputs": [],
      "stateMutability": "nonpayable",
      "type": "function"
    },
    {
      "inputs": [],
      "name": "name",
      "outputs": [
        {
          "internalType": "string",
          "name": "",
          "type": "string"
        }
      ],
      "stateMutability": "view",
      "type": "function"
    },
    {
      "inputs": [
        {
          "internalType": "uint256",
          "name": "",
          "type": "uint256"
        }
      ],
      "name": "nftHolderAttributes",
      "outputs": [
        {
          "internalType": "uint256",
          "name": "characterIndex",
          "type": "uint256"
        },
        {
          "internalType": "string",
          "name": "name",
          "type": "string"
        },
        {
          "internalType": "string",
          "name": "imageURI",
          "type": "string"
        },
        {
          "internalType": "uint256",
          "name": "hp",
          "type": "uint256"
        },
        {
          "internalType": "uint256",
          "name": "maxHp",
          "type": "uint256"
        },
        {
          "internalType": "uint256",
          "name": "attackDamage",
          "type": "uint256"
        }
      ],
      "stateMutability": "view",
      "type": "function"
    },
    {
      "inputs": [
        {
          "internalType": "address",
          "name": "",
          "type": "address"
        }
      ],
      "name": "nftHolders",
      "outputs": [
        {
          "internalType": "uint256",
          "name": "",
          "type": "uint256"
        }
      ],
      "stateMutability": "view",
      "type": "function"
    },
    {
      "inputs": [
        {
          "internalType": "uint256",
          "name": "tokenId",
          "type": "uint256"
        }
      ],
      "name": "ownerOf",
      "outputs": [
        {
          "internalType": "address",
          "name": "",
          "type": "address"
        }
      ],
      "stateMutability": "view",
      "type": "function"
    },
    {
      "inputs": [
        {
          "internalType": "address",
          "name": "from",
          "type": "address"
        },
        {
          "internalType": "address",
          "name": "to",
          "type": "address"
        },
        {
          "internalType": "uint256",
          "name": "tokenId",
          "type": "uint256"
        }
      ],
      "name": "safeTransferFrom",
      "outputs": [],
      "stateMutability": "nonpayable",
      "type": "function"
    },
    {
      "inputs": [
        {
          "internalType": "address",
          "name": "from",
          "type": "address"
        },
        {
          "internalType": "address",
          "name": "to",
          "type": "address"
        },
        {
          "internalType": "uint256",
          "name": "tokenId",
          "type": "uint256"
        },
        {
          "internalType": "bytes",
          "name": "data",
          "type": "bytes"
        }
      ],
      "name": "safeTransferFrom",
      "outputs": [],
      "stateMutability": "nonpayable",
      "type": "function"
    },
    {
      "inputs": [
        {
          "internalType": "address",
          "name": "operator",
          "type": "address"
        },
        {
          "internalType": "bool",
          "name": "approved",
          "type": "bool"
        }
      ],
      "name": "setApprovalForAll",
      "outputs": [],
      "stateMutability": "nonpayable",
      "type": "function"
    },
    {
      "inputs": [
        {
          "internalType": "bytes4",
          "name": "interfaceId",
          "type": "bytes4"
        }
      ],
      "name": "supportsInterface",
      "outputs": [
        {
          "internalType": "bool",
          "name": "",
          "type": "bool"
        }
      ],
      "stateMutability": "view",
      "type": "function"
    },
    {
      "inputs": [],
      "name": "symbol",
      "outputs": [
        {
          "internalType": "string",
          "name": "",
          "type": "string"
        }
      ],
      "stateMutability": "view",
      "type": "function"
    },
    {
      "inputs": [
        {
          "internalType": "uint256",
          "name": "_tokenId",
          "type": "uint256"
        }
      ],
      "name": "tokenURI",
      "outputs": [
        {
          "internalType": "string",
          "name": "",
          "type": "string"
        }
      ],
      "stateMutability": "view",
      "type": "function"
    },
    {
      "inputs": [
        {
          "internalType": "address",
          "name": "from",
          "type": "address"
        },
        {
          "internalType": "address",
          "name": "to",
          "type": "address"
        },
        {
          "internalType": "uint256",
          "name": "tokenId",
          "type": "uint256"
        }
      ],
      "name": "transferFrom",
      "outputs": [],
      "stateMutability": "nonpayable",
      "type": "function"
    }
  ],
  "bytecode": "0x60806040526000600f553480156200001657600080fd5b506040516200629b3803806200629b83398181016040528101906200003c919062000a90565b6040518060400160405280600f81526020017f56616e696c6c61205261696465727300000000000000000000000000000000008152506040518060400160405280600781526020017f52414944455253000000000000000000000000000000000000000000000000008152508160009081620000b9919062000e54565b508060019081620000cb919062000e54565b5050506040518060a0016040528085815260200184815260200183815260200183815260200182815250600a60008201518160000190816200010e919062000e54565b50602082015181600101908162000126919062000e54565b50604082015181600201556060820151816003015560808201518160040155905050620002a96040518060600160405280602a815260200162006271602a9139600a6000018054620001789062000c4d565b80601f0160208091040260200160405190810160405280929190818152602001828054620001a69062000c4d565b8015620001f75780601f10620001cb57610100808354040283529160200191620001f7565b820191906000526020600020905b815481529060010190602001808311620001d957829003601f168201915b5050505050600a60020154600a6001018054620002149062000c4d565b80601f0160208091040260200160405190810160405280929190818152602001828054620002429062000c4d565b8015620002935780601f10620002675761010080835404028352916020019162000293565b820191906000526020600020905b8154815290600101906020018083116200027557829003601f168201915b50505050506200060560201b62001e0e1760201c565b60005b8851811015620005df5760076040518060c001604052808381526020018b8481518110620002df57620002de62000f3b565b5b602002602001015181526020018a848151811062000302576200030162000f3b565b5b6020026020010151815260200189848151811062000325576200032462000f3b565b5b6020026020010151815260200189848151811062000348576200034762000f3b565b5b602002602001015181526020018884815181106200036b576200036a62000f3b565b5b60200260200101518152509080600181540180825580915050600190039060005260206000209060060201600090919091909150600082015181600001556020820151816001019081620003c0919062000e54565b506040820151816002019081620003d8919062000e54565b50606082015181600301556080820151816004015560a08201518160050155505060006007828154811062000412576200041162000f3b565b5b90600052602060002090600602016040518060c001604052908160008201548152602001600182018054620004479062000c4d565b80601f0160208091040260200160405190810160405280929190818152602001828054620004759062000c4d565b8015620004c65780601f106200049a57610100808354040283529160200191620004c6565b820191906000526020600020905b815481529060010190602001808311620004a857829003601f168201915b50505050508152602001600282018054620004e19062000c4d565b80601f01602080910402602001604051908101604052809291908181526020018280546200050f9062000c4d565b8015620005605780601f10620005345761010080835404028352916020019162000560565b820191906000526020600020905b8154815290600101906020018083116200054257829003601f168201915b5050505050815260200160038201548152602001600482015481526020016005820154815250509050620005c76040518060600160405280602581526020016200624c602591398260200151836060015184604001516200060560201b62001e0e1760201c565b50600181620005d7919062000f99565b9050620002ac565b50620005f76006620006b160201b62001eb01760201c565b505050505050505062001099565b620006ab8484848460405160240162000622949392919062001037565b6040516020818303038152906040527f5d1a971a000000000000000000000000000000000000000000000000000000007bffffffffffffffffffffffffffffffffffffffffffffffffffffffff19166020820180517bffffffffffffffffffffffffffffffffffffffffffffffffffffffff8381831617835250505050620006c760201b60201c565b50505050565b6001816000016000828254019250508190555050565b60008151905060006a636f6e736f6c652e6c6f679050602083016000808483855afa5050505050565b6000604051905090565b600080fd5b600080fd5b600080fd5b6000601f19601f8301169050919050565b7f4e487b7100000000000000000000000000000000000000000000000000000000600052604160045260246000fd5b620007548262000709565b810181811067ffffffffffffffff821117156200077657620007756200071a565b5b80604052505050565b60006200078b620006f0565b905062000799828262000749565b919050565b600067ffffffffffffffff821115620007bc57620007bb6200071a565b5b602082029050602081019050919050565b600080fd5b600080fd5b600067ffffffffffffffff821115620007f557620007f46200071a565b5b620008008262000709565b9050602081019050919050565b60005b838110156200082d57808201518184015260208101905062000810565b60008484015250505050565b6000620008506200084a84620007d7565b6200077f565b9050828152602081018484840111156200086f576200086e620007d2565b5b6200087c8482856200080d565b509392505050565b600082601f8301126200089c576200089b62000704565b5b8151620008ae84826020860162000839565b91505092915050565b6000620008ce620008c8846200079e565b6200077f565b90508083825260208201905060208402830185811115620008f457620008f3620007cd565b5b835b818110156200094257805167ffffffffffffffff8111156200091d576200091c62000704565b5b8086016200092c898262000884565b85526020850194505050602081019050620008f6565b5050509392505050565b600082601f83011262000964576200096362000704565b5b815162000976848260208601620008b7565b91505092915050565b600067ffffffffffffffff8211156200099d576200099c6200071a565b5b602082029050602081019050919050565b6000819050919050565b620009c381620009ae565b8114620009cf57600080fd5b50565b600081519050620009e381620009b8565b92915050565b600062000a00620009fa846200097f565b6200077f565b9050808382526020820190506020840283018581111562000a265762000a25620007cd565b5b835b8181101562000a53578062000a3e8882620009d2565b84526020840193505060208101905062000a28565b5050509392505050565b600082601f83011262000a755762000a7462000704565b5b815162000a87848260208601620009e9565b91505092915050565b600080600080600080600080610100898b03121562000ab45762000ab3620006fa565b5b600089015167ffffffffffffffff81111562000ad55762000ad4620006ff565b5b62000ae38b828c016200094c565b985050602089015167ffffffffffffffff81111562000b075762000b06620006ff565b5b62000b158b828c016200094c565b975050604089015167ffffffffffffffff81111562000b395762000b38620006ff565b5b62000b478b828c0162000a5d565b965050606089015167ffffffffffffffff81111562000b6b5762000b6a620006ff565b5b62000b798b828c0162000a5d565b955050608089015167ffffffffffffffff81111562000b9d5762000b9c620006ff565b5b62000bab8b828c0162000884565b94505060a089015167ffffffffffffffff81111562000bcf5762000bce620006ff565b5b62000bdd8b828c0162000884565b93505060c062000bf08b828c01620009d2565b92505060e062000c038b828c01620009d2565b9150509295985092959890939650565b600081519050919050565b7f4e487b7100000000000000000000000000000000000000000000000000000000600052602260045260246000fd5b6000600282049050600182168062000c6657607f821691505b60208210810362000c7c5762000c7b62000c1e565b5b50919050565b60008190508160005260206000209050919050565b60006020601f8301049050919050565b600082821b905092915050565b60006008830262000ce67fffffffffffffffffffffffffffffffffffffffffffffffffffffffffffffffff8262000ca7565b62000cf2868362000ca7565b95508019841693508086168417925050509392505050565b6000819050919050565b600062000d3562000d2f62000d2984620009ae565b62000d0a565b620009ae565b9050919050565b6000819050919050565b62000d518362000d14565b62000d6962000d608262000d3c565b84845462000cb4565b825550505050565b600090565b62000d8062000d71565b62000d8d81848462000d46565b505050565b5b8181101562000db55762000da960008262000d76565b60018101905062000d93565b5050565b601f82111562000e045762000dce8162000c82565b62000dd98462000c97565b8101602085101562000de9578190505b62000e0162000df88562000c97565b83018262000d92565b50505b505050565b600082821c905092915050565b600062000e296000198460080262000e09565b1980831691505092915050565b600062000e44838362000e16565b9150826002028217905092915050565b62000e5f8262000c13565b67ffffffffffffffff81111562000e7b5762000e7a6200071a565b5b62000e87825462000c4d565b62000e9482828562000db9565b600060209050601f83116001811462000ecc576000841562000eb7578287015190505b62000ec3858262000e36565b86555062000f33565b601f19841662000edc8662000c82565b60005b8281101562000f065784890151825560018201915060208501945060208101905062000edf565b8683101562000f26578489015162000f22601f89168262000e16565b8355505b6001600288020188555050505b505050505050565b7f4e487b7100000000000000000000000000000000000000000000000000000000600052603260045260246000fd5b7f4e487b7100000000000000000000000000000000000000000000000000000000600052601160045260246000fd5b600062000fa682620009ae565b915062000fb383620009ae565b925082820190508082111562000fce5762000fcd62000f6a565b5b92915050565b600082825260208201905092915050565b600062000ff28262000c13565b62000ffe818562000fd4565b9350620010108185602086016200080d565b6200101b8162000709565b840191505092915050565b6200103181620009ae565b82525050565b6000608082019050818103600083015262001053818762000fe5565b9050818103602083015262001069818662000fe5565b90506200107a604083018562001026565b81810360608301526200108e818462000fe5565b905095945050505050565b6151a380620010a96000396000f3fe608060405234801561001057600080fd5b50600436106101375760003560e01c806395d89b41116100b8578063b953084e1161007c578063b953084e14610369578063c87b56dd14610387578063c8cf27f4146103b7578063d4f24c5b146103d5578063e985e9c5146103df578063f8b81ef71461040f57610137565b806395d89b41146102bc57806398da4c95146102da578063a22cb4651461030f578063a9c326791461032b578063b88d4fde1461034d57610137565b806323b872dd116100ff57806323b872dd146101f457806342842e0e146102105780636352211e1461022c57806370a082311461025c5780637df124a11461028c57610137565b806301ffc9a71461013c5780630665f9611461016c57806306fdde031461018a578063081812fc146101a8578063095ea7b3146101d8575b600080fd5b610156600480360381019061015191906133b0565b61042b565b60405161016391906133f8565b60405180910390f35b61017461050d565b6040516101819190613539565b60405180910390f35b610192610669565b60405161019f91906135a5565b60405180910390f35b6101c260048036038101906101bd91906135f3565b6106fb565b6040516101cf9190613661565b60405180910390f35b6101f260048036038101906101ed91906136a8565b610741565b005b61020e600480360381019061020991906136e8565b610858565b005b61022a600480360381019061022591906136e8565b6108b8565b005b610246600480360381019061024191906135f3565b6108d8565b6040516102539190613661565b60405180910390f35b6102766004803603810190610271919061373b565b61095e565b6040516102839190613777565b60405180910390f35b6102a660048036038101906102a1919061373b565b610a15565b6040516102b39190613777565b60405180910390f35b6102c4610a2d565b6040516102d191906135a5565b60405180910390f35b6102f460048036038101906102ef91906135f3565b610abf565b60405161030696959493929190613792565b60405180910390f35b6103296004803603810190610324919061382d565b610c0b565b005b610333610c21565b60405161034495949392919061386d565b60405180910390f35b61036760048036038101906103629190613a03565b610d55565b005b610371610db7565b60405161037e9190613bd8565b60405180910390f35b6103a1600480360381019061039c91906135f3565b610f62565b6040516103ae91906135a5565b60405180910390f35b6103bf61117d565b6040516103cc9190613c8a565b60405180910390f35b6103dd611355565b005b6103f960048036038101906103f49190613cac565b611a52565b60405161040691906133f8565b60405180910390f35b610429600480360381019061042491906135f3565b611ae6565b005b60007f80ac58cd000000000000000000000000000000000000000000000000000000007bffffffffffffffffffffffffffffffffffffffffffffffffffffffff1916827bffffffffffffffffffffffffffffffffffffffffffffffffffffffff191614806104f657507f5b5e139f000000000000000000000000000000000000000000000000000000007bffffffffffffffffffffffffffffffffffffffffffffffffffffffff1916827bffffffffffffffffffffffffffffffffffffffffffffffffffffffff1916145b80610506575061050582611ec6565b5b9050919050565b6105156132df565b600a6040518060a001604052908160008201805461053290613d1b565b80601f016020809104026020016040519081016040528092919081815260200182805461055e90613d1b565b80156105ab5780601f10610580576101008083540402835291602001916105ab565b820191906000526020600020905b81548152906001019060200180831161058e57829003601f168201915b505050505081526020016001820180546105c490613d1b565b80601f01602080910402602001604051908101604052809291908181526020018280546105f090613d1b565b801561063d5780601f106106125761010080835404028352916020019161063d565b820191906000526020600020905b81548152906001019060200180831161062057829003601f168201915b505050505081526020016002820154815260200160038201548152602001600482015481525050905090565b60606000805461067890613d1b565b80601f01602080910402602001604051908101604052809291908181526020018280546106a490613d1b565b80156106f15780601f106106c6576101008083540402835291602001916106f1565b820191906000526020600020905b8154815290600101906020018083116106d457829003601f168201915b5050505050905090565b600061070682611f30565b6004600083815260200190815260200160002060009054906101000a900473ffffffffffffffffffffffffffffffffffffffff169050919050565b600061074c826108d8565b90508073ffffffffffffffffffffffffffffffffffffffff168373ffffffffffffffffffffffffffffffffffffffff16036107bc576040517f08c379a00000000000000000000000000000000000000000000000000000000081526004016107b390613dbe565b60405180910390fd5b8073ffffffffffffffffffffffffffffffffffffffff166107db611f7b565b73ffffffffffffffffffffffffffffffffffffffff16148061080a575061080981610804611f7b565b611a52565b5b610849576040517f08c379a000000000000000000000000000000000000000000000000000000000815260040161084090613e50565b60405180910390fd5b6108538383611f83565b505050565b610869610863611f7b565b8261203c565b6108a8576040517f08c379a000000000000000000000000000000000000000000000000000000000815260040161089f90613ee2565b60405180910390fd5b6108b38383836120d1565b505050565b6108d383838360405180602001604052806000815250610d55565b505050565b6000806108e4836123ca565b9050600073ffffffffffffffffffffffffffffffffffffffff168173ffffffffffffffffffffffffffffffffffffffff1603610955576040517f08c379a000000000000000000000000000000000000000000000000000000000815260040161094c90613f4e565b60405180910390fd5b80915050919050565b60008073ffffffffffffffffffffffffffffffffffffffff168273ffffffffffffffffffffffffffffffffffffffff16036109ce576040517f08c379a00000000000000000000000000000000000000000000000000000000081526004016109c590613fe0565b60405180910390fd5b600360008373ffffffffffffffffffffffffffffffffffffffff1673ffffffffffffffffffffffffffffffffffffffff168152602001908152602001600020549050919050565b60096020528060005260406000206000915090505481565b606060018054610a3c90613d1b565b80601f0160208091040260200160405190810160405280929190818152602001828054610a6890613d1b565b8015610ab55780601f10610a8a57610100808354040283529160200191610ab5565b820191906000526020600020905b815481529060010190602001808311610a9857829003601f168201915b5050505050905090565b6008602052806000526040600020600091509050806000015490806001018054610ae890613d1b565b80601f0160208091040260200160405190810160405280929190818152602001828054610b1490613d1b565b8015610b615780601f10610b3657610100808354040283529160200191610b61565b820191906000526020600020905b815481529060010190602001808311610b4457829003601f168201915b505050505090806002018054610b7690613d1b565b80601f0160208091040260200160405190810160405280929190818152602001828054610ba290613d1b565b8015610bef5780601f10610bc457610100808354040283529160200191610bef565b820191906000526020600020905b815481529060010190602001808311610bd257829003601f168201915b5050505050908060030154908060040154908060050154905086565b610c1d610c16611f7b565b8383612407565b5050565b600a806000018054610c3290613d1b565b80601f0160208091040260200160405190810160405280929190818152602001828054610c5e90613d1b565b8015610cab5780601f10610c8057610100808354040283529160200191610cab565b820191906000526020600020905b815481529060010190602001808311610c8e57829003601f168201915b505050505090806001018054610cc090613d1b565b80601f0160208091040260200160405190810160405280929190818152602001828054610cec90613d1b565b8015610d395780601f10610d0e57610100808354040283529160200191610d39565b820191906000526020600020905b815481529060010190602001808311610d1c57829003601f168201915b5050505050908060020154908060030154908060040154905085565b610d66610d60611f7b565b8361203c565b610da5576040517f08c379a0000000000000000000000000000000000000000000000000000000008152600401610d9c90613ee2565b60405180910390fd5b610db184848484612573565b50505050565b60606007805480602002602001604051908101604052809291908181526020016000905b82821015610f5957838290600052602060002090600602016040518060c001604052908160008201548152602001600182018054610e1890613d1b565b80601f0160208091040260200160405190810160405280929190818152602001828054610e4490613d1b565b8015610e915780601f10610e6657610100808354040283529160200191610e91565b820191906000526020600020905b815481529060010190602001808311610e7457829003601f168201915b50505050508152602001600282018054610eaa90613d1b565b80601f0160208091040260200160405190810160405280929190818152602001828054610ed690613d1b565b8015610f235780601f10610ef857610100808354040283529160200191610f23565b820191906000526020600020905b815481529060010190602001808311610f0657829003601f168201915b50505050508152602001600382015481526020016004820154815260200160058201548152505081526020019060010190610ddb565b50505050905090565b60606000600860008481526020019081526020016000206040518060c001604052908160008201548152602001600182018054610f9e90613d1b565b80601f0160208091040260200160405190810160405280929190818152602001828054610fca90613d1b565b80156110175780601f10610fec57610100808354040283529160200191611017565b820191906000526020600020905b815481529060010190602001808311610ffa57829003601f168201915b5050505050815260200160028201805461103090613d1b565b80601f016020809104026020016040519081016040528092919081815260200182805461105c90613d1b565b80156110a95780601f1061107e576101008083540402835291602001916110a9565b820191906000526020600020905b81548152906001019060200180831161108c57829003601f168201915b505050505081526020016003820154815260200160048201548152602001600582015481525050905060006110e182606001516125cf565b905060006110f283608001516125cf565b905060006111038460a001516125cf565b905060006111498560200151611118896125cf565b87604001518787876040516020016111359695949392919061430e565b60405160208183030381529060405261269d565b905060008160405160200161115e91906143ff565b6040516020818303038152906040529050809650505050505050919050565b61118561330e565b6000600960003373ffffffffffffffffffffffffffffffffffffffff1673ffffffffffffffffffffffffffffffffffffffff168152602001908152602001600020549050600081111561134457600860008281526020019081526020016000206040518060c00160405290816000820154815260200160018201805461120a90613d1b565b80601f016020809104026020016040519081016040528092919081815260200182805461123690613d1b565b80156112835780601f1061125857610100808354040283529160200191611283565b820191906000526020600020905b81548152906001019060200180831161126657829003601f168201915b5050505050815260200160028201805461129c90613d1b565b80601f01602080910402602001604051908101604052809291908181526020018280546112c890613d1b565b80156113155780601f106112ea57610100808354040283529160200191611315565b820191906000526020600020905b8154815290600101906020018083116112f857829003601f168201915b505050505081526020016003820154815260200160048201548152602001600582015481525050915050611352565b61134c61330e565b80925050505b90565b6000600960003373ffffffffffffffffffffffffffffffffffffffff1673ffffffffffffffffffffffffffffffffffffffff16815260200190815260200160002054905060006008600083815260200190815260200160002090506114686040518060600160405280603c8152602001615132603c91398260010180546113db90613d1b565b80601f016020809104026020016040519081016040528092919081815260200182805461140790613d1b565b80156114545780601f1061142957610100808354040283529160200191611454565b820191906000526020600020905b81548152906001019060200180831161143757829003601f168201915b505050505083600301548460050154612834565b6115406040518060400160405280601b81526020017f426f73732025732068617320257320485020616e642025732041440000000000815250600a60000180546114b190613d1b565b80601f01602080910402602001604051908101604052809291908181526020018280546114dd90613d1b565b801561152a5780601f106114ff5761010080835404028352916020019161152a565b820191906000526020600020905b81548152906001019060200180831161150d57829003601f168201915b5050505050600a60020154600a60040154612834565b6000816003015411611587576040517f08c379a000000000000000000000000000000000000000000000000000000000815260040161157e90614493565b60405180910390fd5b6000600a60020154116115cf576040517f08c379a00000000000000000000000000000000000000000000000000000000081526004016115c690614525565b60405180910390fd5b8060050154600a6002015410156115f0576000600a600201819055506117e7565b60086115fc600a6128d6565b111561171357806005015460026116139190614574565b600a60020154101561162f576000600a6002018190555061170e565b806005015460026116409190614574565b600a6002015461165091906145b6565b600a6002018190555061170d6040518060600160405280603b81526020016150f7603b913982600101805461168490613d1b565b80601f01602080910402602001604051908101604052809291908181526020018280546116b090613d1b565b80156116fd5780601f106116d2576101008083540402835291602001916116fd565b820191906000526020600020905b8154815290600101906020018083116116e057829003601f168201915b5050505050600a60020154612932565b5b6117e6565b8060050154600a6002015461172891906145b6565b600a600201819055506117e5604051806060016040528060218152602001614ff66021913982600101805461175c90613d1b565b80601f016020809104026020016040519081016040528092919081815260200182805461178890613d1b565b80156117d55780601f106117aa576101008083540402835291602001916117d5565b820191906000526020600020905b8154815290600101906020018083116117b857829003601f168201915b5050505050600a60020154612932565b5b5b600a600401548160030154101561180757600081600301819055506119bd565b6007611813600a6128d6565b10156118ef57600a60040154816003015461182e91906145b6565b81600301819055506118ea60405180606001604052806025815260200161501760259139600a600001805461186290613d1b565b80601f016020809104026020016040519081016040528092919081815260200182805461188e90613d1b565b80156118db5780601f106118b0576101008083540402835291602001916118db565b820191906000526020600020905b8154815290600101906020018083116118be57829003601f168201915b50505050508360030154612932565b6119bc565b6119bb6040518060400160405280600b81526020017f2573206d6973736564210a000000000000000000000000000000000000000000815250600a600001805461193890613d1b565b80601f016020809104026020016040519081016040528092919081815260200182805461196490613d1b565b80156119b15780601f10611986576101008083540402835291602001916119b1565b820191906000526020600020905b81548152906001019060200180831161199457829003601f168201915b50505050506129d1565b5b5b6119e460405180606001604052806025815260200161503c60259139600a60020154612a6d565b611a0a6040518060600160405280602881526020016150a1602891398260030154612a6d565b7f32bd565ee3f2cb5ddd742bbecd6048d3e9abe90b3827a40c2b72d232e71e3c9d33600a600201548360030154604051611a46939291906145ea565b60405180910390a15050565b6000600560008473ffffffffffffffffffffffffffffffffffffffff1673ffffffffffffffffffffffffffffffffffffffff16815260200190815260200160002060008373ffffffffffffffffffffffffffffffffffffffff1673ffffffffffffffffffffffffffffffffffffffff16815260200190815260200160002060009054906101000a900460ff16905092915050565b6000611af26006612b09565b9050611afe3382612b17565b6040518060c0016040528083815260200160078481548110611b2357611b22614621565b5b90600052602060002090600602016001018054611b3f90613d1b565b80601f0160208091040260200160405190810160405280929190818152602001828054611b6b90613d1b565b8015611bb85780601f10611b8d57610100808354040283529160200191611bb8565b820191906000526020600020905b815481529060010190602001808311611b9b57829003601f168201915b5050505050815260200160078481548110611bd657611bd5614621565b5b90600052602060002090600602016002018054611bf290613d1b565b80601f0160208091040260200160405190810160405280929190818152602001828054611c1e90613d1b565b8015611c6b5780601f10611c4057610100808354040283529160200191611c6b565b820191906000526020600020905b815481529060010190602001808311611c4e57829003601f168201915b5050505050815260200160078481548110611c8957611c88614621565b5b906000526020600020906006020160030154815260200160078481548110611cb457611cb3614621565b5b906000526020600020906006020160040154815260200160078481548110611cdf57611cde614621565b5b90600052602060002090600602016005015481525060086000838152602001908152602001600020600082015181600001556020820151816001019081611d2691906147fc565b506040820151816002019081611d3c91906147fc565b50606082015181600301556080820151816004015560a08201518160050155905050611d816040518060600160405280602e81526020016150c9602e91398284612b35565b80600960003373ffffffffffffffffffffffffffffffffffffffff1673ffffffffffffffffffffffffffffffffffffffff16815260200190815260200160002081905550611dcf6006611eb0565b7f4bc303fd457a97b4691b9af582ce71868a3d258638c8d4f8c60988a0f0bfb8cd338284604051611e02939291906145ea565b60405180910390a15050565b611eaa84848484604051602401611e2894939291906148ce565b6040516020818303038152906040527f5d1a971a000000000000000000000000000000000000000000000000000000007bffffffffffffffffffffffffffffffffffffffffffffffffffffffff19166020820180517bffffffffffffffffffffffffffffffffffffffffffffffffffffffff8381831617835250505050612bd4565b50505050565b6001816000016000828254019250508190555050565b60007f01ffc9a7000000000000000000000000000000000000000000000000000000007bffffffffffffffffffffffffffffffffffffffffffffffffffffffff1916827bffffffffffffffffffffffffffffffffffffffffffffffffffffffff1916149050919050565b611f3981612bfd565b611f78576040517f08c379a0000000000000000000000000000000000000000000000000000000008152600401611f6f90613f4e565b60405180910390fd5b50565b600033905090565b816004600083815260200190815260200160002060006101000a81548173ffffffffffffffffffffffffffffffffffffffff021916908373ffffffffffffffffffffffffffffffffffffffff160217905550808273ffffffffffffffffffffffffffffffffffffffff16611ff6836108d8565b73ffffffffffffffffffffffffffffffffffffffff167f8c5be1e5ebec7d5bd14f71427d1e84f3dd0314c0f7b2291e5b200ac8c7c3b92560405160405180910390a45050565b600080612048836108d8565b90508073ffffffffffffffffffffffffffffffffffffffff168473ffffffffffffffffffffffffffffffffffffffff16148061208a57506120898185611a52565b5b806120c857508373ffffffffffffffffffffffffffffffffffffffff166120b0846106fb565b73ffffffffffffffffffffffffffffffffffffffff16145b91505092915050565b8273ffffffffffffffffffffffffffffffffffffffff166120f1826108d8565b73ffffffffffffffffffffffffffffffffffffffff1614612147576040517f08c379a000000000000000000000000000000000000000000000000000000000815260040161213e9061499a565b60405180910390fd5b600073ffffffffffffffffffffffffffffffffffffffff168273ffffffffffffffffffffffffffffffffffffffff16036121b6576040517f08c379a00000000000000000000000000000000000000000000000000000000081526004016121ad90614a2c565b60405180910390fd5b6121c38383836001612c3e565b8273ffffffffffffffffffffffffffffffffffffffff166121e3826108d8565b73ffffffffffffffffffffffffffffffffffffffff1614612239576040517f08c379a00000000000000000000000000000000000000000000000000000000081526004016122309061499a565b60405180910390fd5b6004600082815260200190815260200160002060006101000a81549073ffffffffffffffffffffffffffffffffffffffff02191690556001600360008573ffffffffffffffffffffffffffffffffffffffff1673ffffffffffffffffffffffffffffffffffffffff168152602001908152602001600020600082825403925050819055506001600360008473ffffffffffffffffffffffffffffffffffffffff1673ffffffffffffffffffffffffffffffffffffffff16815260200190815260200160002060008282540192505081905550816002600083815260200190815260200160002060006101000a81548173ffffffffffffffffffffffffffffffffffffffff021916908373ffffffffffffffffffffffffffffffffffffffff160217905550808273ffffffffffffffffffffffffffffffffffffffff168473ffffffffffffffffffffffffffffffffffffffff167fddf252ad1be2c89b69c2b068fc378daa952ba7f163c4a11628f55a4df523b3ef60405160405180910390a46123c58383836001612d64565b505050565b60006002600083815260200190815260200160002060009054906101000a900473ffffffffffffffffffffffffffffffffffffffff169050919050565b8173ffffffffffffffffffffffffffffffffffffffff168373ffffffffffffffffffffffffffffffffffffffff1603612475576040517f08c379a000000000000000000000000000000000000000000000000000000000815260040161246c90614a98565b60405180910390fd5b80600560008573ffffffffffffffffffffffffffffffffffffffff1673ffffffffffffffffffffffffffffffffffffffff16815260200190815260200160002060008473ffffffffffffffffffffffffffffffffffffffff1673ffffffffffffffffffffffffffffffffffffffff16815260200190815260200160002060006101000a81548160ff0219169083151502179055508173ffffffffffffffffffffffffffffffffffffffff168373ffffffffffffffffffffffffffffffffffffffff167f17307eab39ab6107e8899845ad3d59bd9653f200f220920489ca2b5937696c318360405161256691906133f8565b60405180910390a3505050565b61257e8484846120d1565b61258a84848484612d6a565b6125c9576040517f08c379a00000000000000000000000000000000000000000000000000000000081526004016125c090614b2a565b60405180910390fd5b50505050565b6060600060016125de84612ef1565b01905060008167ffffffffffffffff8111156125fd576125fc6138d8565b5b6040519080825280601f01601f19166020018201604052801561262f5781602001600182028036833780820191505090505b509050600082602001820190505b600115612692578080600190039150507f3031323334353637383961626364656600000000000000000000000000000000600a86061a8153600a858161268657612685614b4a565b5b0494506000850361263d575b819350505050919050565b6060600082519050600081036126c5576040518060200160405280600081525091505061282f565b600060036002836126d69190614b79565b6126e09190614bad565b60046126ec9190614574565b905060006020826126fd9190614b79565b67ffffffffffffffff811115612716576127156138d8565b5b6040519080825280601f01601f1916602001820160405280156127485781602001600182028036833780820191505090505b5090506000604051806060016040528060408152602001615061604091399050600181016020830160005b868110156127ec5760038101905062ffffff818a015116603f8160121c168401518060081b905060ff603f83600c1c1686015116810190508060081b905060ff603f8360061c1686015116810190508060081b905060ff603f831686015116810190508060e01b90508084526004840193505050612773565b506003860660018114612806576002811461281657612821565b613d3d60f01b6002830352612821565b603d60f81b60018303525b508484525050819450505050505b919050565b6128d08484848460405160240161284e9493929190614bde565b6040516020818303038152906040527ff45d7d2c000000000000000000000000000000000000000000000000000000007bffffffffffffffffffffffffffffffffffffffffffffffffffffffff19166020820180517bffffffffffffffffffffffffffffffffffffffffffffffffffffffff8381831617835250505050612bd4565b50505050565b6000600f60008154809291906128eb90614c31565b9190505550814233600f5460405160200161290893929190614ce2565b6040516020818303038152906040528051906020012060001c61292b9190614d1f565b9050919050565b6129cc83838360405160240161294a93929190614d50565b6040516020818303038152906040527f5821efa1000000000000000000000000000000000000000000000000000000007bffffffffffffffffffffffffffffffffffffffffffffffffffffffff19166020820180517bffffffffffffffffffffffffffffffffffffffffffffffffffffffff8381831617835250505050612bd4565b505050565b612a6982826040516024016129e7929190614d95565b6040516020818303038152906040527f4b5c4277000000000000000000000000000000000000000000000000000000007bffffffffffffffffffffffffffffffffffffffffffffffffffffffff19166020820180517bffffffffffffffffffffffffffffffffffffffffffffffffffffffff8381831617835250505050612bd4565b5050565b612b058282604051602401612a83929190614dcc565b6040516020818303038152906040527fb60e72cc000000000000000000000000000000000000000000000000000000007bffffffffffffffffffffffffffffffffffffffffffffffffffffffff19166020820180517bffffffffffffffffffffffffffffffffffffffffffffffffffffffff8381831617835250505050612bd4565b5050565b600081600001549050919050565b612b31828260405180602001604052806000815250613044565b5050565b612bcf838383604051602401612b4d93929190614dfc565b6040516020818303038152906040527fca47c4eb000000000000000000000000000000000000000000000000000000007bffffffffffffffffffffffffffffffffffffffffffffffffffffffff19166020820180517bffffffffffffffffffffffffffffffffffffffffffffffffffffffff8381831617835250505050612bd4565b505050565b60008151905060006a636f6e736f6c652e6c6f679050602083016000808483855afa5050505050565b60008073ffffffffffffffffffffffffffffffffffffffff16612c1f836123ca565b73ffffffffffffffffffffffffffffffffffffffff1614159050919050565b6001811115612d5e57600073ffffffffffffffffffffffffffffffffffffffff168473ffffffffffffffffffffffffffffffffffffffff1614612cd25780600360008673ffffffffffffffffffffffffffffffffffffffff1673ffffffffffffffffffffffffffffffffffffffff1681526020019081526020016000206000828254612cca91906145b6565b925050819055505b600073ffffffffffffffffffffffffffffffffffffffff168373ffffffffffffffffffffffffffffffffffffffff1614612d5d5780600360008573ffffffffffffffffffffffffffffffffffffffff1673ffffffffffffffffffffffffffffffffffffffff1681526020019081526020016000206000828254612d559190614b79565b925050819055505b5b50505050565b50505050565b6000612d8b8473ffffffffffffffffffffffffffffffffffffffff1661309f565b15612ee4578373ffffffffffffffffffffffffffffffffffffffff1663150b7a02612db4611f7b565b8786866040518563ffffffff1660e01b8152600401612dd69493929190614e8f565b6020604051808303816000875af1925050508015612e1257506040513d601f19601f82011682018060405250810190612e0f9190614ef0565b60015b612e94573d8060008114612e42576040519150601f19603f3d011682016040523d82523d6000602084013e612e47565b606091505b506000815103612e8c576040517f08c379a0000000000000000000000000000000000000000000000000000000008152600401612e8390614b2a565b60405180910390fd5b805181602001fd5b63150b7a0260e01b7bffffffffffffffffffffffffffffffffffffffffffffffffffffffff1916817bffffffffffffffffffffffffffffffffffffffffffffffffffffffff191614915050612ee9565b600190505b949350505050565b600080600090507a184f03e93ff9f4daa797ed6e38ed64bf6a1f0100000000000000008310612f4f577a184f03e93ff9f4daa797ed6e38ed64bf6a1f0100000000000000008381612f4557612f44614b4a565b5b0492506040810190505b6d04ee2d6d415b85acef81000000008310612f8c576d04ee2d6d415b85acef81000000008381612f8257612f81614b4a565b5b0492506020810190505b662386f26fc100008310612fbb57662386f26fc100008381612fb157612fb0614b4a565b5b0492506010810190505b6305f5e1008310612fe4576305f5e1008381612fda57612fd9614b4a565b5b0492506008810190505b6127108310613009576127108381612fff57612ffe614b4a565b5b0492506004810190505b6064831061302c576064838161302257613021614b4a565b5b0492506002810190505b600a831061303b576001810190505b80915050919050565b61304e83836130c2565b61305b6000848484612d6a565b61309a576040517f08c379a000000000000000000000000000000000000000000000000000000000815260040161309190614b2a565b60405180910390fd5b505050565b6000808273ffffffffffffffffffffffffffffffffffffffff163b119050919050565b600073ffffffffffffffffffffffffffffffffffffffff168273ffffffffffffffffffffffffffffffffffffffff1603613131576040517f08c379a000000000000000000000000000000000000000000000000000000000815260040161312890614f69565b60405180910390fd5b61313a81612bfd565b1561317a576040517f08c379a000000000000000000000000000000000000000000000000000000000815260040161317190614fd5565b60405180910390fd5b613188600083836001612c3e565b61319181612bfd565b156131d1576040517f08c379a00000000000000000000000000000000000000000000000000000000081526004016131c890614fd5565b60405180910390fd5b6001600360008473ffffffffffffffffffffffffffffffffffffffff1673ffffffffffffffffffffffffffffffffffffffff16815260200190815260200160002060008282540192505081905550816002600083815260200190815260200160002060006101000a81548173ffffffffffffffffffffffffffffffffffffffff021916908373ffffffffffffffffffffffffffffffffffffffff160217905550808273ffffffffffffffffffffffffffffffffffffffff16600073ffffffffffffffffffffffffffffffffffffffff167fddf252ad1be2c89b69c2b068fc378daa952ba7f163c4a11628f55a4df523b3ef60405160405180910390a46132db600083836001612d64565b5050565b6040518060a0016040528060608152602001606081526020016000815260200160008152602001600081525090565b6040518060c001604052806000815260200160608152602001606081526020016000815260200160008152602001600081525090565b6000604051905090565b600080fd5b600080fd5b60007fffffffff0000000000000000000000000000000000000000000000000000000082169050919050565b61338d81613358565b811461339857600080fd5b50565b6000813590506133aa81613384565b92915050565b6000602082840312156133c6576133c561334e565b5b60006133d48482850161339b565b91505092915050565b60008115159050919050565b6133f2816133dd565b82525050565b600060208201905061340d60008301846133e9565b92915050565b600081519050919050565b600082825260208201905092915050565b60005b8381101561344d578082015181840152602081019050613432565b60008484015250505050565b6000601f19601f8301169050919050565b600061347582613413565b61347f818561341e565b935061348f81856020860161342f565b61349881613459565b840191505092915050565b6000819050919050565b6134b6816134a3565b82525050565b600060a08301600083015184820360008601526134d9828261346a565b915050602083015184820360208601526134f3828261346a565b915050604083015161350860408601826134ad565b50606083015161351b60608601826134ad565b50608083015161352e60808601826134ad565b508091505092915050565b6000602082019050818103600083015261355381846134bc565b905092915050565b600082825260208201905092915050565b600061357782613413565b613581818561355b565b935061359181856020860161342f565b61359a81613459565b840191505092915050565b600060208201905081810360008301526135bf818461356c565b905092915050565b6135d0816134a3565b81146135db57600080fd5b50565b6000813590506135ed816135c7565b92915050565b6000602082840312156136095761360861334e565b5b6000613617848285016135de565b91505092915050565b600073ffffffffffffffffffffffffffffffffffffffff82169050919050565b600061364b82613620565b9050919050565b61365b81613640565b82525050565b60006020820190506136766000830184613652565b92915050565b61368581613640565b811461369057600080fd5b50565b6000813590506136a28161367c565b92915050565b600080604083850312156136bf576136be61334e565b5b60006136cd85828601613693565b92505060206136de858286016135de565b9150509250929050565b6000806000606084860312156137015761370061334e565b5b600061370f86828701613693565b935050602061372086828701613693565b9250506040613731868287016135de565b9150509250925092565b6000602082840312156137515761375061334e565b5b600061375f84828501613693565b91505092915050565b613771816134a3565b82525050565b600060208201905061378c6000830184613768565b92915050565b600060c0820190506137a76000830189613768565b81810360208301526137b9818861356c565b905081810360408301526137cd818761356c565b90506137dc6060830186613768565b6137e96080830185613768565b6137f660a0830184613768565b979650505050505050565b61380a816133dd565b811461381557600080fd5b50565b60008135905061382781613801565b92915050565b600080604083850312156138445761384361334e565b5b600061385285828601613693565b925050602061386385828601613818565b9150509250929050565b600060a0820190508181036000830152613887818861356c565b9050818103602083015261389b818761356c565b90506138aa6040830186613768565b6138b76060830185613768565b6138c46080830184613768565b9695505050505050565b600080fd5b600080fd5b7f4e487b7100000000000000000000000000000000000000000000000000000000600052604160045260246000fd5b61391082613459565b810181811067ffffffffffffffff8211171561392f5761392e6138d8565b5b80604052505050565b6000613942613344565b905061394e8282613907565b919050565b600067ffffffffffffffff82111561396e5761396d6138d8565b5b61397782613459565b9050602081019050919050565b82818337600083830152505050565b60006139a66139a184613953565b613938565b9050828152602081018484840111156139c2576139c16138d3565b5b6139cd848285613984565b509392505050565b600082601f8301126139ea576139e96138ce565b5b81356139fa848260208601613993565b91505092915050565b60008060008060808587031215613a1d57613a1c61334e565b5b6000613a2b87828801613693565b9450506020613a3c87828801613693565b9350506040613a4d878288016135de565b925050606085013567ffffffffffffffff811115613a6e57613a6d613353565b5b613a7a878288016139d5565b91505092959194509250565b600081519050919050565b600082825260208201905092915050565b6000819050602082019050919050565b600060c083016000830151613aca60008601826134ad565b5060208301518482036020860152613ae2828261346a565b91505060408301518482036040860152613afc828261346a565b9150506060830151613b1160608601826134ad565b506080830151613b2460808601826134ad565b5060a0830151613b3760a08601826134ad565b508091505092915050565b6000613b4e8383613ab2565b905092915050565b6000602082019050919050565b6000613b6e82613a86565b613b788185613a91565b935083602082028501613b8a85613aa2565b8060005b85811015613bc65784840389528151613ba78582613b42565b9450613bb283613b56565b925060208a01995050600181019050613b8e565b50829750879550505050505092915050565b60006020820190508181036000830152613bf28184613b63565b905092915050565b600060c083016000830151613c1260008601826134ad565b5060208301518482036020860152613c2a828261346a565b91505060408301518482036040860152613c44828261346a565b9150506060830151613c5960608601826134ad565b506080830151613c6c60808601826134ad565b5060a0830151613c7f60a08601826134ad565b508091505092915050565b60006020820190508181036000830152613ca48184613bfa565b905092915050565b60008060408385031215613cc357613cc261334e565b5b6000613cd185828601613693565b9250506020613ce285828601613693565b9150509250929050565b7f4e487b7100000000000000000000000000000000000000000000000000000000600052602260045260246000fd5b60006002820490506001821680613d3357607f821691505b602082108103613d4657613d45613cec565b5b50919050565b7f4552433732313a20617070726f76616c20746f2063757272656e74206f776e6560008201527f7200000000000000000000000000000000000000000000000000000000000000602082015250565b6000613da860218361355b565b9150613db382613d4c565b604082019050919050565b60006020820190508181036000830152613dd781613d9b565b9050919050565b7f4552433732313a20617070726f76652063616c6c6572206973206e6f7420746f60008201527f6b656e206f776e6572206f7220617070726f76656420666f7220616c6c000000602082015250565b6000613e3a603d8361355b565b9150613e4582613dde565b604082019050919050565b60006020820190508181036000830152613e6981613e2d565b9050919050565b7f4552433732313a2063616c6c6572206973206e6f7420746f6b656e206f776e6560008201527f72206f7220617070726f76656400000000000000000000000000000000000000602082015250565b6000613ecc602d8361355b565b9150613ed782613e70565b604082019050919050565b60006020820190508181036000830152613efb81613ebf565b9050919050565b7f4552433732313a20696e76616c696420746f6b656e2049440000000000000000600082015250565b6000613f3860188361355b565b9150613f4382613f02565b602082019050919050565b60006020820190508181036000830152613f6781613f2b565b9050919050565b7f4552433732313a2061646472657373207a65726f206973206e6f74206120766160008201527f6c6964206f776e65720000000000000000000000000000000000000000000000602082015250565b6000613fca60298361355b565b9150613fd582613f6e565b604082019050919050565b60006020820190508181036000830152613ff981613fbd565b9050919050565b600081905092915050565b7f7b226e616d65223a202200000000000000000000000000000000000000000000600082015250565b6000614041600a83614000565b915061404c8261400b565b600a82019050919050565b600061406282613413565b61406c8185614000565b935061407c81856020860161342f565b80840191505092915050565b7f202d205261696465722023000000000000000000000000000000000000000000600082015250565b60006140be600b83614000565b91506140c982614088565b600b82019050919050565b7f222c20226465736372697074696f6e223a20225468697320697320616e204e4660008201527f542074686174206c6574732070656f706c6520706c617920696e20746865206760208201527f616d652056616e696c6c61205261696465727320627920416476336e7475726560408201527f2e78797a2e222c2022696d616765223a2022697066733a2f2f00000000000000606082015250565b600061417c607983614000565b9150614187826140d4565b607982019050919050565b7f222c202261747472696275746573223a205b207b202274726169745f7479706560008201527f223a20224865616c746820506f696e7473222c202276616c7565223a20000000602082015250565b60006141ee603d83614000565b91506141f982614192565b603d82019050919050565b7f2c20226d61785f76616c7565223a000000000000000000000000000000000000600082015250565b600061423a600e83614000565b915061424582614204565b600e82019050919050565b7f7d2c207b202274726169745f74797065223a202241747461636b2044616d616760008201527f65222c202276616c7565223a2000000000000000000000000000000000000000602082015250565b60006142ac602d83614000565b91506142b782614250565b602d82019050919050565b7f7d205d7d00000000000000000000000000000000000000000000000000000000600082015250565b60006142f8600483614000565b9150614303826142c2565b600482019050919050565b600061431982614034565b91506143258289614057565b9150614330826140b1565b915061433c8288614057565b91506143478261416f565b91506143538287614057565b915061435e826141e1565b915061436a8286614057565b91506143758261422d565b91506143818285614057565b915061438c8261429f565b91506143988284614057565b91506143a3826142eb565b9150819050979650505050505050565b7f646174613a6170706c69636174696f6e2f6a736f6e3b6261736536342c000000600082015250565b60006143e9601d83614000565b91506143f4826143b3565b601d82019050919050565b600061440a826143dc565b91506144168284614057565b915081905092915050565b7f4572726f723a20636861726163746572206d757374206861766520485020746f60008201527f2061747461636b20626f73732e00000000000000000000000000000000000000602082015250565b600061447d602d8361355b565b915061448882614421565b604082019050919050565b600060208201905081810360008301526144ac81614470565b9050919050565b7f4572726f723a20626f7373206d757374206861766520485020746f206174746160008201527f636b206368617261637465722e00000000000000000000000000000000000000602082015250565b600061450f602d8361355b565b915061451a826144b3565b604082019050919050565b6000602082019050818103600083015261453e81614502565b9050919050565b7f4e487b7100000000000000000000000000000000000000000000000000000000600052601160045260246000fd5b600061457f826134a3565b915061458a836134a3565b9250828202614598816134a3565b915082820484148315176145af576145ae614545565b5b5092915050565b60006145c1826134a3565b91506145cc836134a3565b92508282039050818111156145e4576145e3614545565b5b92915050565b60006060820190506145ff6000830186613652565b61460c6020830185613768565b6146196040830184613768565b949350505050565b7f4e487b7100000000000000000000000000000000000000000000000000000000600052603260045260246000fd5b60008190508160005260206000209050919050565b60006020601f8301049050919050565b600082821b905092915050565b6000600883026146b27fffffffffffffffffffffffffffffffffffffffffffffffffffffffffffffffff82614675565b6146bc8683614675565b95508019841693508086168417925050509392505050565b6000819050919050565b60006146f96146f46146ef846134a3565b6146d4565b6134a3565b9050919050565b6000819050919050565b614713836146de565b61472761471f82614700565b848454614682565b825550505050565b600090565b61473c61472f565b61474781848461470a565b505050565b5b8181101561476b57614760600082614734565b60018101905061474d565b5050565b601f8211156147b05761478181614650565b61478a84614665565b81016020851015614799578190505b6147ad6147a585614665565b83018261474c565b50505b505050565b600082821c905092915050565b60006147d3600019846008026147b5565b1980831691505092915050565b60006147ec83836147c2565b9150826002028217905092915050565b61480582613413565b67ffffffffffffffff81111561481e5761481d6138d8565b5b6148288254613d1b565b61483382828561476f565b600060209050601f8311600181146148665760008415614854578287015190505b61485e85826147e0565b8655506148c6565b601f19841661487486614650565b60005b8281101561489c57848901518255600182019150602085019450602081019050614877565b868310156148b957848901516148b5601f8916826147c2565b8355505b6001600288020188555050505b505050505050565b600060808201905081810360008301526148e8818761356c565b905081810360208301526148fc818661356c565b905061490b6040830185613768565b818103606083015261491d818461356c565b905095945050505050565b7f4552433732313a207472616e736665722066726f6d20696e636f72726563742060008201527f6f776e6572000000000000000000000000000000000000000000000000000000602082015250565b600061498460258361355b565b915061498f82614928565b604082019050919050565b600060208201905081810360008301526149b381614977565b9050919050565b7f4552433732313a207472616e7366657220746f20746865207a65726f2061646460008201527f7265737300000000000000000000000000000000000000000000000000000000602082015250565b6000614a1660248361355b565b9150614a21826149ba565b604082019050919050565b60006020820190508181036000830152614a4581614a09565b9050919050565b7f4552433732313a20617070726f766520746f2063616c6c657200000000000000600082015250565b6000614a8260198361355b565b9150614a8d82614a4c565b602082019050919050565b60006020820190508181036000830152614ab181614a75565b9050919050565b7f4552433732313a207472616e7366657220746f206e6f6e20455243373231526560008201527f63656976657220696d706c656d656e7465720000000000000000000000000000602082015250565b6000614b1460328361355b565b9150614b1f82614ab8565b604082019050919050565b60006020820190508181036000830152614b4381614b07565b9050919050565b7f4e487b7100000000000000000000000000000000000000000000000000000000600052601260045260246000fd5b6000614b84826134a3565b9150614b8f836134a3565b9250828201905080821115614ba757614ba6614545565b5b92915050565b6000614bb8826134a3565b9150614bc3836134a3565b925082614bd357614bd2614b4a565b5b828204905092915050565b60006080820190508181036000830152614bf8818761356c565b90508181036020830152614c0c818661356c565b9050614c1b6040830185613768565b614c286060830184613768565b95945050505050565b6000614c3c826134a3565b91507fffffffffffffffffffffffffffffffffffffffffffffffffffffffffffffffff8203614c6e57614c6d614545565b5b600182019050919050565b6000819050919050565b614c94614c8f826134a3565b614c79565b82525050565b60008160601b9050919050565b6000614cb282614c9a565b9050919050565b6000614cc482614ca7565b9050919050565b614cdc614cd782613640565b614cb9565b82525050565b6000614cee8286614c83565b602082019150614cfe8285614ccb565b601482019150614d0e8284614c83565b602082019150819050949350505050565b6000614d2a826134a3565b9150614d35836134a3565b925082614d4557614d44614b4a565b5b828206905092915050565b60006060820190508181036000830152614d6a818661356c565b90508181036020830152614d7e818561356c565b9050614d8d6040830184613768565b949350505050565b60006040820190508181036000830152614daf818561356c565b90508181036020830152614dc3818461356c565b90509392505050565b60006040820190508181036000830152614de6818561356c565b9050614df56020830184613768565b9392505050565b60006060820190508181036000830152614e16818661356c565b9050614e256020830185613768565b614e326040830184613768565b949350505050565b600081519050919050565b600082825260208201905092915050565b6000614e6182614e3a565b614e6b8185614e45565b9350614e7b81856020860161342f565b614e8481613459565b840191505092915050565b6000608082019050614ea46000830187613652565b614eb16020830186613652565b614ebe6040830185613768565b8181036060830152614ed08184614e56565b905095945050505050565b600081519050614eea81613384565b92915050565b600060208284031215614f0657614f0561334e565b5b6000614f1484828501614edb565b91505092915050565b7f4552433732313a206d696e7420746f20746865207a65726f2061646472657373600082015250565b6000614f5360208361355b565b9150614f5e82614f1d565b602082019050919050565b60006020820190508181036000830152614f8281614f46565b9050919050565b7f4552433732313a20746f6b656e20616c7265616479206d696e74656400000000600082015250565b6000614fbf601c8361355b565b9150614fca82614f89565b602082019050919050565b60006020820190508181036000830152614fee81614fb2565b905091905056fe25732061747461636b656420626f73732e204e657720626f73732068703a20257325732061747461636b656420706c617965722e204e657720706c617965722068703a202573506c617965722061747461636b656420626f73732e204e657720626f73732068703a2025734142434445464748494a4b4c4d4e4f505152535455565758595a6162636465666768696a6b6c6d6e6f707172737475767778797a303132333435363738392b2f426f73732061747461636b656420706c617965722e204e657720706c617965722068703a2025730a4d696e746564204e465420772f20746f6b656e496420257320616e6420636861726163746572496e64657820257325732061747461636b656420626f737320616e64206465616c7420637269746963616c2064616d61676521204e657720626f73732068703a2025730a506c6179657220772f206368617261637465722025732061626f757420746f2061747461636b2e2048617320257320485020616e64202573204144a26469706673582212208da3b0e9171b90743fc06284dff9fe0f194acb6890561d750e304f05c383af7464736f6c63430008110033446f6e6520696e697469616c697a696e6720257320772f2048502025732c20696d67202573446f6e6520696e697469616c697a696e6720626f737320257320772f2048502025732c20696d67202573",
  "linkReferences": {},
  "deployedLinkReferences": {}
}